:100000000C9446000C9465000C9465000C946500FB
:100010000C9465000C9465000C9465000C946500CC
:100020000C9465000C9465000C9465000C946500BC
:100030000C9465000C9427020C9465000C946500E8
:100040000C9465000C9465000C9465000C9465009C
:100050000C9465000C9465000C9465000C9465008C
:100060000C9465000C9465000C9465000C9465007C
:100070000C9465000C9465000C9465000C9465006C
:100080000C9465000C9465000C94650011241FBE4F
:10009000CFEFD0E4DEBFCDBF11E0A0E0B1E0EAEEEB
:1000A000FAE000E00BBF02C007900D92AA32B10740
:1000B000D9F721E0AAE2B1E001C01D92A537B2074D
:1000C000E1F70E94F3040C9473050C940000CF93A5
:1000D000DF9300D01F92CDB7DEB789837B836A831D
:1000E00089818A3031F48A819B81BC018DE00E9434
:1000F000670080EC90E0FC018081882F90E08072A6
:100100009927892BB1F386EC90E02981FC012083AB
:1001100080E090E00F900F900F90DF91CF910895C5
:10012000CF93DF93CDB7DEB728970FB6F894DEBF35
:100130000FBECDBF9A8389834B835C836D837E839F
:1001400038872F8380912A01282F30E085E090E0C6
:100150002817390708F06BC080912A01282F30E05A
:10016000C901880F991F820F931F880F991F880F4D
:10017000991F8B5C9E4F29813A81FC01318320833A
:1001800080912A01682F70E080912A01282F30E0A9
:10019000C901880F991F820F931F880F991F880F1D
:1001A000991FAC01495C5E4F8B819C81AD81BE8102
:1001B000FA0180839183A283B383C901880F991FB9
:1001C000820F931F880F991F880F991F895C9E4F7C
:1001D000FC012081318142815381CB01880F991F1D
:1001E000860F971F880F991F880F991F855C9E4F58
:1001F000FC01208331834283538380912A01282F7D
:1002000030E0C901880F991F820F931F880F991F33
:10021000880F991F815C9E4F2F813885FC013183A7
:10022000208380912A018F5F80932A0101C0000002
:1002300028960FB6F894DEBF0FBECDBFDF91CF91E9
:100240000895CF93DF93CDB7DEB781E890E02BE040
:10025000FC01208388E890E02DE730E0FC01318349
:1002600020838FE690E022E0FC01208384E890E088
:10027000FC011182108280910E0190910F01A091DA
:100280001001B091110180932C0190932D01A09346
:100290002E01B0932F018FE590E02FE530E0F901BA
:1002A00020812068FC0120830000DF91CF91089518
:1002B000CF93DF93CDB7DEB781E890E0FC011082E9
:1002C0000000DF91CF9108950F931F93CF93DF9399
:1002D0001F92CDB7DEB71982AAC08981282F30E0DE
:1002E000C901880F991F820F931F880F991F880FCC
:1002F000991F855C9E4FFC01208131814281538191
:100300008981682F70E0CB01880F991F860F971F96
:10031000880F991F880F991F895C9E4FFC0180816F
:100320009181A281B381281739074A075B0708F436
:1003300049C08981082F10E08981282F30E0C90148
:10034000880F991F820F931F880F991F880F991F7D
:10035000815C9E4FFC01408151818981282F30E0D2
:10036000C901880F991F820F931F880F991F880F4B
:10037000991F8B5C9E4FFC0180819181FA01099548
:100380009C01C801880F991F800F911F880F991F2A
:10039000880F991F8B5C9E4FFC01318320838981DC
:1003A000282F30E0C901880F991F820F931F880FF3
:1003B000991F880F991F855C9E4FFC011082118246
:1003C000128213828981682F70E08981282F30E0A2
:1003D000C901880F991F820F931F880F991F880FDB
:1003E000991F855C9E4FFC012081318142815381A0
:1003F0008091710190917201A0917301B09174018B
:10040000280F391F4A1F5B1FCB01880F991F860FCA
:10041000971F880F991F880F991F855C9E4FFC01BD
:10042000208331834283538389818F5F89838981CC
:10043000282F30E085E090E02817390708F44DCFE9
:1004400000000F90DF91CF911F910F9108951F929F
:100450000F9200905F000F92112400905B000F92AA
:100460002F933F934F935F936F937F938F939F93BC
:10047000AF93BF93EF93FF93CF93DF93CDB7DEB7E7
:1004800080912C0190912D01A0912E01B0912F010E
:100490000197A109B10980932C0190932D01A0939C
:1004A0002E01B0932F0180912C0190912D01A091EC
:1004B0002E01B0912F01892B8A2B8B2B91F40E9456
:1004C000640180910E0190910F01A0911001B091F3
:1004D000110180932C0190932D01A0932E01B093D4
:1004E0002F010000DF91CF91FF91EF91BF91AF916C
:1004F0009F918F917F916F915F914F913F912F913C
:100500000F9000925B000F9000925F000F901F9081
:100510001895CF93DF9300D000D0CDB7DEB76983B5
:100520007A838B839C8389819A81AB81BC81809300
:100530000E0190930F01A0931001B09311018091CF
:100540000E0190910F01A0911001B09111018093C3
:100550002C0190932D01A0932E01B0932F01000048
:100560000F900F900F900F90DF91CF910895CF9340
:10057000DF9300D000D0CDB7DEB79C838B8380E2C1
:1005800090E0FC018081809584708093300180E24E
:1005900090E0FC018081882F90E08170992721E014
:1005A000892B09F020E0298380E290E0FC01808122
:1005B000809582708A838B819C818230910571F154
:1005C000833091052CF4009769F0019781F052C0B7
:1005D00084309105C9F1843091055CF1059709F4E7
:1005E0003EC048C081E090E09C838B8346C08981F7
:1005F000882319F08A81882361F08981882331F466
:100600008A81882319F084E090E005C081E090E0C1
:1006100002C082E090E09C838B832FC08981882375
:1006200019F083E090E002C081E090E09C838B832E
:1006300024C08981882319F083E090E002C081E022
:1006400090E09C838B8319C08A81882319F085E010
:1006500090E002C081E090E09C838B830EC08A8191
:10066000882319F085E090E002C081E090E09C834F
:100670008B8303C01C821B8200008B819C81823093
:10068000910531F0833091050CF1049761F021C0A0
:10069000809113018F5F80931301809112018F5F0E
:1006A0008093120116C080911301823088F08091EE
:1006B0001201823068F08091130181508093130100
:1006C0008091120181508093120102C0000001C08C
:1006D00000008B819C810F900F900F900F90DF9105
:1006E000CF910895CF93DF9300D000D0CDB7DEB780
:1006F0009C838B8388E089831A828B819C818130E3
:10070000910579F08230910539F0892B79F482E0F6
:1007100090E09C838B830DC081E090E09C838B8371
:1007200008C082E090E09C838B8303C01C821B8204
:1007300000008B819C818130910531F0029741F45A
:100740008A818093310105C089818093310101C084
:1007500000008B819C810F900F900F900F90DF9184
:10076000CF910895CF93DF9300D000D01F92CDB7E3
:10077000DEB79D838C8381E0898382E08A8384E075
:100780008B838C819D818130910589F08230910528
:100790001CF4892B39F01AC08230910569F0039757
:1007A00081F014C081E090E09D838C8312C082E0D0
:1007B00090E09D838C830DC083E090E09D838C83CB
:1007C00008C081E090E09D838C8303C01D821C8261
:1007D00000008C819D818130910549F08230910526
:1007E00094F08230910539F0039749F00DC089816A
:1007F0008093320109C08A818093320105C08B81C8
:100800008093320101C000008C819D810F900F9078
:100810000F900F900F90DF91CF910895CF93DF93BA
:1008200000D000D0CDB7DEB79C838B83198280E1E6
:100830008A838B819C818130910589F0823091057A
:100840001CF4892B39F063C082309105C1F0039705
:10085000D1F15DC081E090E09C838B835BC080918F
:100860003001882339F01092340182E090E09C83BB
:100870008B8350C081E090E09C838B834BC0809140
:100880003001882381F090913401809112019817F2
:1008900050F4809134018F5F8093340182E090E0C6
:1008A0009C838B8337C080913001882339F010926C
:1008B000340183E090E09C838B832CC081E090E046
:1008C0009C838B8327C080913001882381F0909195
:1008D000340180911301981750F4809134018F5F97
:1008E0008093340183E090E09C838B8313C08091DC
:1008F0003001882339F01092340182E090E09C832B
:100900008B8308C081E090E09C838B8303C01C82B2
:100910001B8200008B819C818130910549F08230DF
:10092000910594F08230910539F0039749F00DC09C
:1009300089818093330109C089818093330105C087
:100940008A818093330101C000008B819C810F90CC
:100950000F900F900F90DF91CF910895CF93DF9379
:1009600000D01F92CDB7DEB79B838A8319828A811C
:100970009B81009719F0019731F00AC081E090E067
:100980009B838A8308C081E090E09B838A8303C0B5
:100990001B821A8200008A819B81009719F00197BF
:1009A00059F014C09091310180913201982B8091BF
:1009B0003301892B89830AC09091310180913201E2
:1009C000982B80913301892B8983000085E290E088
:1009D0002981FC0120838A819B810F900F900F90C9
:1009E000DF91CF910895CF93DF93CDB7DEB784E247
:1009F00090E02FEFFC01208385E290E0FC01108263
:100A000081E290E0FC01108282E290E02FEFFC0195
:100A1000208381E090E0A0E0B0E027EB32E0AC0181
:100A2000BD0180E090E00E94900088EE93E0A0E09D
:100A3000B0E022E733E0AC01BD0180E090E00E942D
:100A400090008CE291E0A0E0B0E022EB33E0AC015A
:100A5000BD0180E090E00E94900081E090E0A0E085
:100A6000B0E02EE034E0AC01BD0180E090E00E94F7
:100A7000900081E090E0A0E0B0E02EEA34E0AC012C
:100A8000BD0180E090E00E94900081E090E0A0E055
:100A9000B0E08093710190937201A0937301B093C1
:100AA00074018091710190917201A0917301B091D4
:100AB0007401BC01CD010E9489020E94210183E5DD
:100AC00090E023E530E0F9012081217FFC012083C3
:100AD00083E590E023E530E0F90120812160FC010D
:0A0AE00020838895FECFF894FFCF25
:100AEA000000000200000000670000000000010092
:100AFA0000000101050001000000E80300002C01CC
:0A0B0A0000000100000001000000DF
:00000001FF
