:100000000C9446000C9465000C9465000C946500FB
:100010000C9465000C9465000C9465000C946500CC
:100020000C9465000C9465000C9465000C946500BC
:100030000C9465000C94B5000C9465000C9465005C
:100040000C9465000C9465000C9465000C9465009C
:100050000C9465000C9465000C9465000C9465008C
:100060000C9465000C9465000C9465000C9465007C
:100070000C9465000C9465000C9465000C9465006C
:100080000C9465000C9465000C94650011241FBE4F
:10009000CFEFD0E4DEBFCDBF11E0A0E0B1E0EEE3F2
:1000A000F4E000E00BBF02C007900D92A430B1074E
:1000B000D9F721E0A4E0B1E001C01D92AC30B20755
:1000C000E1F70E94E9010C941D020C940000CF930B
:1000D000DF93CDB7DEB781E890E02BE0FC01208311
:1000E00088E890E02DE730E0FC01318320838FE643
:1000F00090E022E0FC01208384E890E0FC01118282
:1001000010828091000190910101A0910201B091B3
:1001100003018093050190930601A0930701B0931A
:1001200008018FE590E02FE530E0F901208120689B
:10013000FC0120830000DF91CF910895CF93DF93DE
:10014000CDB7DEB781E890E0FC0110820000DF91BE
:10015000CF910895CF93DF93CDB7DEB781E0809341
:1001600004010000DF91CF9108951F920F9200903B
:100170005F000F92112400905B000F922F933F932A
:100180004F935F936F937F938F939F93AF93BF939F
:10019000EF93FF93CF93DF93CDB7DEB78091050147
:1001A00090910601A0910701B09108010197A10962
:1001B000B1098093050190930601A0930701B093C4
:1001C00008018091050190910601A0910701B0916D
:1001D0000801892B8A2B8B2B91F40E94AA00809115
:1001E000000190910101A0910201B091030180935F
:1001F000050190930601A0930701B0930801000048
:10020000DF91CF91FF91EF91BF91AF919F918F912E
:100210007F916F915F914F913F912F910F9000923D
:100220005B000F9000925F000F901F901895CF9386
:10023000DF9300D000D0CDB7DEB769837A838B839C
:100240009C8389819A81AB81BC81809300019093CA
:100250000101A0930201B0930301809100019091EC
:100260000101A0910201B0910301809305019093D7
:100270000601A0930701B093080100000F900F90B2
:100280000F900F90DF91CF910895CF93DF9300D01F
:10029000CDB7DEB780E290E0FC018081882F90E04E
:1002A0008170992721E0892B09F020E02A831982A7
:1002B00080910A0190910B018230910511F18330F8
:1002C000910528F4009749F0019771F04CC08330F4
:1002D000910521F10497D1F146C081E090E090931F
:1002E0000B0180930A0144C08A81882319F082E0BF
:1002F00090E002C081E090E090930B0180930A01AE
:1003000037C08A81882319F083E090E002C081E041
:1003100090E090930B0180930A012AC0809109011B
:10032000803168F08A81882339F080910901803119
:1003300018F084E090E005C081E090E002C083E026
:1003400090E090930B0180930A0112C08A81882368
:1003500019F084E090E002C081E090E090930B01FE
:1003600080930A0105C010920B0110920A0100004F
:1003700080910A0190910B018230910581F08330C8
:10038000910528F40097C9F0019739F017C0833020
:10039000910549F0049779F011C019820FC01092AD
:1003A000090119820BC0809109018F5F80930901B7
:1003B00081E0898303C0198201C0000085E290E0DA
:1003C0002981FC01208300000F900F90DF91CF91D5
:1003D0000895CF93DF9300D000D0CDB7DEB781E290
:1003E00090E0FC01108282E290E02FEFFC0120837C
:1003F00084E290E02FEFFC01208385E290E0FC0195
:1004000010828DE790E0A0E0B0E089839A83AB830F
:10041000BC8389819A81AB81BC81BC01CD010E94E2
:1004200017010E9467000E944501000080910401AD
:0E0430008823E1F310920401F6CFF894FFCF79
:04043E0001000000B9
:00000001FF
