:100000000C9446000C9465000C9465000C946500FB
:100010000C9465000C9465000C9465000C946500CC
:100020000C9465000C9465000C9465000C946500BC
:100030000C9465000C94DE000C9465000C94650033
:100040000C9465000C9465000C9465000C9465009C
:100050000C9465000C9465000C9465000C9465008C
:100060000C9465000C9465000C9465000C9465007C
:100070000C9465000C9465000C9465000C9465006C
:100080000C9465000C9465000C94650011241FBE4F
:10009000CFEFD0E4DEBFCDBF11E0A0E0B1E0E6EAF3
:1000A000FAE000E00BBF02C007900D92A433B10745
:1000B000D9F721E0A4E3B1E001C01D92A334B20757
:1000C000E1F70E9456030C9451050C940000CF9365
:1000D000DF9300D01F92CDB7DEB789837B836A831D
:1000E00089818A3031F48A819B81BC018DE00E9434
:1000F000670080EC90E0FC018081882F90E08072A6
:100100009927892BB1F386EC90E02981FC012083AB
:1001100080E090E00F900F900F90DF91CF910895C5
:10012000CF93DF93CDB7DEB781E890E02BE0FC0101
:10013000208388E890E02DE730E0FC0131832083C4
:100140008FE690E022E0FC01208384E890E0FC014F
:100150001182108280910E0190910F01A0911001E7
:10016000B09111018093350190933601A09337012E
:10017000B09338018FE590E02FE530E0F901208160
:100180002068FC0120830000DF91CF910895CF9378
:10019000DF93CDB7DEB781E890E0FC01108200006C
:1001A000DF91CF910895CF93DF93CDB7DEB781E094
:1001B000809334010000DF91CF9108951F920F9238
:1001C00000905F000F92112400905B000F922F931C
:1001D0003F934F935F936F937F938F939F93AF93CF
:1001E000BF93EF93FF93CF93DF93CDB7DEB78091AB
:1001F000350190913601A0913701B09138010197F6
:10020000A109B1098093350190933601A09337017C
:10021000B09338018091350190913601A09137015A
:10022000B0913801892B8A2B8B2B91F40E94D3003B
:1002300080910E0190910F01A0911001B0911101D8
:100240008093350190933601A0933701B093380124
:100250000000DF91CF91FF91EF91BF91AF919F91FE
:100260008F917F916F915F914F913F912F910F905F
:1002700000925B000F9000925F000F901F90189506
:10028000CF93DF9300D000D0CDB7DEB769837A83F8
:100290008B839C8389819A81AB81BC8180930E0181
:1002A00090930F01A0931001B093110180910E0162
:1002B00090910F01A0911001B0911101809335012F
:1002C00090933601A0933701B093380100000F904E
:1002D0000F900F900F90DF91CF9108950F931F9380
:1002E000CF93DF9300D000D0CDB7DEB769837A8398
:1002F0008B839C8380913E0190913F01A0914001AE
:10030000B09141019C01AD0169817A818B819C8111
:100310000E94BD03882309F477C020E030E0A901E2
:1003200069817A818B819C810E94BD03882351F46D
:1003300081E990E021E930E0F90120812870FC0199
:10034000208309C081E990E021E930E0F9012081B2
:100350002360FC01208328E539E344E75FE36981FA
:100360007A818B819C810E94BD03882344F488E9B3
:1003700090E02FEF3FEFFC013183208334C020E079
:1003800034E244EF56E469817A818B819C810E943A
:10039000DF04181634F488E990E0FC011182108221
:1003A00022C008E910E020E030E040E053E4698139
:1003B0007A818B819C810E94E404DC01CB019C0149
:1003C000AD0160E074E284EF9AE40E94C203DC01B4
:1003D000CB01BC01CD010E943404DC01CB010197AB
:1003E000F8019183808384E990E0FC0111821082FE
:1003F00089819A81AB81BC8180933E0190933F01BA
:10040000A0934001B093410100000F900F900F9016
:100410000F90DF91CF911F910F910895CF93DF93AC
:10042000CDB7DEB780E990E020E4FC01208381E9CC
:1004300090E02BE0FC01208360E070E0CB010E94A3
:100440006E010000DF91CF910895CF93DF93CDB778
:10045000DEB780E990E0FC01108281E990E0FC01C8
:1004600010820000DF91CF910895CF93DF9300D0E9
:100470001F92CDB7DEB79B838A8380E290E0FC01B8
:100480008081882F90E08170992721E0892B09F0E5
:1004900020E029838A819B818130910551F082304F
:1004A000910591F0892B29F581E090E09B838A8367
:1004B00023C08981882319F082E090E002C081E0A6
:1004C00090E09B838A8318C08981882329F082E089
:1004D00090E09B838A8310C081E090E09B838A83B5
:1004E0009091390181E0913009F480E080933901E5
:1004F00003C01B821A82000000008A819B810F903A
:100500000F900F90DF91CF910895CF93DF9300D09C
:1005100000D0CDB7DEB79C838B8380E290E0FC01F6
:10052000808180958270898380E290E0FC018081E7
:10053000809584708A838B819C818230910509F437
:1005400042C0833091052CF4009751F0019721F1BE
:1005500052C083309105E1F1049709F43EC04BC0CD
:1005600081E090E09C838B8380914201882F90E012
:10057000880F991F880F991F8E5E9E4FFC01808106
:100580009181A281B38180933A0190933B01A09322
:100590003C01B0933D0132C08981882319F08A81E2
:1005A000882361F08981882331F48A81882319F0B6
:1005B00083E090E005C081E090E002C082E090E03E
:1005C0009C838B831BC084E090E09C838B8316C04C
:1005D00084E090E09C838B8311C08981882319F487
:1005E0008A81882319F084E090E002C081E090E0E5
:1005F0009C838B8303C01C821B8200008B819C81A7
:100600008230910539F0833091050CF445C0039791
:1006100011F143C080914201873028F4809142015A
:100620008F5F8093420180914201882F90E0880F74
:10063000991F880F991F8E5E9E4FFC0180819181CA
:10064000A281B38180933A0190933B01A0933C0136
:10065000B0933D0122C080914201882329F080910E
:10066000420181508093420180914201882F90E0A5
:10067000880F991F880F991F8E5E9E4FFC01808105
:100680009181A281B38180933A0190933B01A09321
:100690003C01B0933D0101C000008B819C810F9013
:1006A0000F900F900F90DF91CF910895CF93DF932C
:1006B000CDB7DEB728970FB6F894DEBF0FBECDBF1B
:1006C00081E290E0FC01108282E290E02FEFFC01D9
:1006D000208384E290E02FEFFC01208385E290E00C
:1006E000FC01108287E290E02FEFFC01208388E27A
:1006F00090E0FC01108284E690E0A0E0B0E08D8301
:100700009E83AF83B8878D819E81AF81B885BC0100
:10071000CD010E9440010E9490000E940E021A82A8
:1007200019821C821B8289819A810E9435029A83D8
:10073000898380913901882399F08B819C810E9463
:1007400085029C838B8380913A0190913B01A0911B
:100750003C01B0913D01BC01CD010E946E0105C07C
:1007600060E070E0CB010E946E01000080913401D6
:100770008823E1F310923401D6CF0E946A0408F472
:1007800081E008950E94D6030C94A5040E949E0463
:1007900058F00E94970440F029F45F3F29F00C9430
:1007A0008E0451110C94D9040C9494040E94B60444
:1007B00068F39923B1F3552391F3951B550BBB2790
:1007C000AA2762177307840738F09F5F5F4F220FD5
:1007D000331F441FAA1FA9F335D00E2E3AF0E0E8CC
:1007E00032D091505040E695001CCAF72BD0FE2F16
:1007F00029D0660F771F881FBB1F261737074807AA
:10080000AB07B0E809F0BB0B802DBF01FF27935861
:100810005F4F3AF09E3F510578F00C948E040C9493
:10082000D9045F3FE4F3983ED4F3869577956795B6
:10083000B795F7959F5FC9F7880F911D9695879596
:1008400097F90895E1E0660F771F881FBB1F6217B5
:1008500073078407BA0720F0621B730B840BBA0B73
:10086000EE1F88F7E09508950E943B046894B1114B
:100870000C94D90408950E94BE0488F09F5798F004
:10088000B92F9927B751B0F0E1F0660F771F881F95
:10089000991F1AF0BA95C9F714C0B13091F00E94AF
:1008A000D804B1E008950C94D804672F782F8827D6
:1008B000B85F39F0B93FCCF3869577956795B395D6
:1008C000D9F73EF490958095709561957F4F8F4F45
:1008D0009F4F0895990F0008550FAA0BE0E8FEEF0F
:1008E00016161706E807F907C0F012161306E407F4
:1008F000F50798F0621B730B840B950B39F40A26ED
:1009000061F0232B242B252B21F408950A2609F4CA
:10091000A140A6958FEF811D811D089597F99F67CE
:1009200080E870E060E008959FEF80EC0895002477
:100930000A941616170618060906089500240A9444
:1009400012161306140605060895092E0394000CCA
:1009500011F4882352F0BB0F40F4BF2B11F460FF59
:1009600004C06F5F7F4F8F4F9F4F089557FD905882
:10097000440F551F59F05F3F71F04795880F97FB63
:10098000991F61F09F3F79F087950895121613061D
:100990001406551FF2CF4695F1DF08C0161617064C
:1009A0001806991FF1CF8695710561050894089581
:1009B000E894BB2766277727CB0197F908950E9413
:1009C0006A0408F48FEF08950E94F7040C94A504BC
:1009D0000E94970438F00E949E0420F0952311F0A5
:1009E0000C948E040C94940411240C94D9040E9449
:1009F000B60470F3959FC1F3950F50E0551F629FA9
:100A0000F001729FBB27F00DB11D639FAA27F00D67
:100A1000B11DAA1F649F6627B00DA11D661F829F8E
:100A20002227B00DA11D621F739FB00DA11D621F73
:100A3000839FA00D611D221F749F3327A00D611D90
:100A4000231F849F600D211D822F762F6A2F112472
:100A50009F5750409AF0F1F088234AF0EE0FFF1FA5
:100A6000BB1F661F771F881F91505040A9F79E3FFC
:100A7000510580F00C948E040C94D9045F3FE4F38C
:100A8000983ED4F3869577956795B795F795E79552
:100A90009F5FC1F7FE2B880F911D9695879597F95B
:060AA0000895F894FFCF59
:100AA60000000002000000006700000000000100D6
:100AB6000000A4D082437BD49243A4D0A443719D6A
:100AC600AE430000C4430000DC43A4F0F64300D06C
:040AD60002440800CE
:00000001FF
