:100000000C9446000C9465000C9465000C946500FB
:100010000C9465000C9465000C9465000C946500CC
:100020000C9465000C9465000C9465000C946500BC
:100030000C9465000C94DE000C9465000C94650033
:100040000C9465000C9465000C9465000C9465009C
:100050000C9465000C9465000C9465000C9465008C
:100060000C9465000C9465000C9465000C9465007C
:100070000C9465000C9465000C9465000C9465006C
:100080000C9465000C9465000C94650011241FBE4F
:10009000CFEFD0E4DEBFCDBF11E0A0E0B1E0E2E001
:1000A000FAE000E00BBF02C007900D92A231B10749
:1000B000D9F721E0A2E1B1E001C01D92AB31B20756
:1000C000E1F70E942E030C94FF040C940000CF93E0
:1000D000DF9300D01F92CDB7DEB789837B836A831D
:1000E00089818A3031F48A819B81BC018DE00E9434
:1000F000670080EC90E0FC018081882F90E08072A6
:100100009927892BB1F386EC90E02981FC012083AB
:1001100080E090E00F900F900F90DF91CF910895C5
:10012000CF93DF93CDB7DEB781E890E02BE0FC0101
:10013000208388E890E02DE730E0FC0131832083C4
:100140008FE690E022E0FC01208384E890E0FC014F
:100150001182108280910E0190910F01A0911001E7
:10016000B09111018093130190931401A093150194
:10017000B09316018FE590E02FE530E0F901208182
:100180002068FC0120830000DF91CF910895CF9378
:10019000DF93CDB7DEB781E890E0FC01108200006C
:1001A000DF91CF910895CF93DF93CDB7DEB781E094
:1001B000809312010000DF91CF9108951F920F925A
:1001C00000905F000F92112400905B000F922F931C
:1001D0003F934F935F936F937F938F939F93AF93CF
:1001E000BF93EF93FF93CF93DF93CDB7DEB78091AB
:1001F000130190911401A0911501B091160101977E
:10020000A109B1098093130190931401A0931501E2
:10021000B09316018091130190911401A0911501E2
:10022000B0911601892B8A2B8B2B91F40E94D3005D
:1002300080910E0190910F01A0911001B0911101D8
:100240008093130190931401A0931501B0931601AC
:100250000000DF91CF91FF91EF91BF91AF919F91FE
:100260008F917F916F915F914F913F912F910F905F
:1002700000925B000F9000925F000F901F90189506
:10028000CF93DF9300D000D0CDB7DEB769837A83F8
:100290008B839C8389819A81AB81BC8180930E0181
:1002A00090930F01A0931001B093110180910E0162
:1002B00090910F01A0911001B09111018093130151
:1002C00090931401A0931501B093160100000F90B4
:1002D0000F900F900F90DF91CF9108950F931F9380
:1002E000CF93DF9300D000D0CDB7DEB769837A8398
:1002F0008B839C838091170190911801A091190123
:10030000B0911A019C01AD0169817A818B819C8138
:100310000E946B03882309F477C020E030E0A90134
:1003200069817A818B819C810E946B03882351F4BF
:1003300081E990E021E930E0F90120812870FC0199
:10034000208309C081E990E021E930E0F9012081B2
:100350002360FC01208328E539E344E75FE36981FA
:100360007A818B819C810E946B03882344F488E905
:1003700090E02FEF3FEFFC013183208334C020E079
:1003800034E244EF56E469817A818B819C810E943A
:100390008D04181634F488E990E0FC011182108273
:1003A00022C008E910E020E030E040E053E4698139
:1003B0007A818B819C810E949204DC01CB019C019B
:1003C000AD0160E074E284EF9AE40E947003DC0106
:1003D000CB01BC01CD010E94E203DC01CB010197FE
:1003E000F8019183808384E990E0FC0111821082FE
:1003F00089819A81AB81BC81809317019093180108
:10040000A0931901B0931A0100000F900F900F9064
:100410000F90DF91CF911F910F910895CF93DF93AC
:10042000CDB7DEB780E990E020E4FC01208381E9CC
:1004300090E02BE0FC01208360E070E0CB010E94A3
:100440006E010000DF91CF910895CF93DF93CDB778
:10045000DEB780E990E0FC01108281E990E0FC01C8
:1004600010820000DF91CF910895CF93DF93CDB735
:10047000DEB729970FB6F894DEBF0FBECDBF9987C0
:10048000888780E290E0FC018081882F90E0817075
:10049000992721E0892B09F020E02D8380E290E06C
:1004A000FC018081809582708E8380E290E0FC0167
:1004B0008081809584708F8319821A821B821C82AE
:1004C000888599858230910509F445C0833091056E
:1004D0002CF4009759F0019771F076C083309105A4
:1004E00009F44CC0049709F45CC06EC081E090E050
:1004F000998788876CC08D81882359F08E818823E5
:1005000041F48F81882329F482E090E099878887DD
:1005100021C08D81882359F48E81882341F08F81F9
:10052000882329F483E090E09987888713C08D8120
:10053000882359F48E81882341F48F81882329F000
:1005400084E090E09987888705C081E090E09987F2
:1005500088873DC03CC08D81882359F08E818823D7
:1005600041F48F81882329F482E090E0998788877D
:100570002EC081E090E09987888729C08D818823EB
:1005800059F48E81882341F08F81882329F483E0F8
:1005900090E0998788871BC081E090E099878887E1
:1005A00016C08D81882359F48E81882341F48F8170
:1005B000882329F084E090E09987888708C081E04B
:1005C00090E09987888703C019861886000088857F
:1005D00099858230910599F0833091052CF400972C
:1005E00049F1019739F027C08330910589F00497CC
:1005F000C1F021C019821A821B821C821CC084EAAD
:1006000090EDA2E8B3E489839A83AB83BC8313C0E3
:100610008BE794EDA2E9B3E489839A83AB83BC832F
:100620000AC084EA90EDA4EAB3E489839A83AB8399
:10063000BC8301C0000089819A81AB81BC81BC016F
:10064000CD010E946E018885998529960FB6F89490
:10065000DEBF0FBECDBFDF91CF910895CF93DF9363
:1006600000D000D000D0CDB7DEB781E290E0FC0131
:10067000108282E290E02FEFFC01208384E290E080
:100680002FEFFC01208385E290E0FC01108284E6DC
:1006900090E0A0E0B0E08B839C83AD83BE838B8130
:1006A0009C81AD81BE81BC01CD010E9440010E94B0
:1006B00090000E940E021A82198289819A810E94FA
:1006C00035029A8389830000809112018823E1F327
:1006D00010921201F2CF0E94180408F481E00895EC
:1006E0000E9484030C9453040E944C0458F00E940E
:1006F000450440F029F45F3F29F00C943C0451116B
:100700000C9487040C9442040E94640468F39923B7
:10071000B1F3552391F3951B550BBB27AA276217FD
:100720007307840738F09F5F5F4F220F331F441F0A
:10073000AA1FA9F335D00E2E3AF0E0E832D091503E
:100740005040E695001CCAF72BD0FE2F29D0660F2B
:10075000771F881FBB1F261737074807AB07B0E86E
:1007600009F0BB0B802DBF01FF2793585F4F3AF074
:100770009E3F510578F00C943C040C9487045F3F35
:10078000E4F3983ED4F3869577956795B795F795FA
:100790009F5FC9F7880F911D9695879597F90895E2
:1007A000E1E0660F771F881FBB1F6217730784077E
:1007B000BA0720F0621B730B840BBA0BEE1F88F78D
:1007C000E09508950E94E9036894B1110C948704A0
:1007D00008950E946C0488F09F5798F0B92F9927CC
:1007E000B751B0F0E1F0660F771F881F991F1AF01C
:1007F000BA95C9F714C0B13091F00E948604B1E0F7
:1008000008950C948604672F782F8827B85F39F0F5
:10081000B93FCCF3869577956795B395D9F73EF4B4
:1008200090958095709561957F4F8F4F9F4F08955C
:10083000990F0008550FAA0BE0E8FEEF16161706F1
:10084000E807F907C0F012161306E407F50798F059
:10085000621B730B840B950B39F40A2661F0232B72
:10086000242B252B21F408950A2609F4A140A695EE
:100870008FEF811D811D089597F99F6780E870E0D3
:1008800060E008959FEF80EC089500240A94161606
:10089000170618060906089500240A94121613066E
:1008A000140605060895092E0394000C11F48823FC
:1008B00052F0BB0F40F4BF2B11F460FF04C06F5F18
:1008C0007F4F8F4F9F4F089557FD9058440F551FEE
:1008D00059F05F3F71F04795880F97FB991F61F0C2
:1008E0009F3F79F087950895121613061406551F39
:1008F000F2CF4695F1DF08C0161617061806991FA5
:10090000F1CF86957105610508940895E894BB2799
:1009100066277727CB0197F908950E94180408F4F9
:100920008FEF08950E94A5040C9453040E9445047F
:1009300038F00E944C0420F0952311F00C943C04F4
:100940000C94420411240C9487040E94640470F3F4
:10095000959FC1F3950F50E0551F629FF001729F64
:10096000BB27F00DB11D639FAA27F00DB11DAA1F73
:10097000649F6627B00DA11D661F829F2227B00DC0
:10098000A11D621F739FB00DA11D621F839FA00D4B
:10099000611D221F749F3327A00D611D231F849F9B
:1009A000600D211D822F762F6A2F11249F575040F2
:1009B0009AF0F1F088234AF0EE0FFF1FBB1F661F6D
:1009C000771F881F91505040A9F79E3F510580F036
:1009D0000C943C040C9487045F3FE4F3983ED4F3FA
:1009E000869577956795B795F795E7959F5FC1F7DA
:1009F000FE2B880F911D9695879597F90895F89489
:020A0000FFCF26
:100A0200000000020000000067000000000001007A
:020A12000000E2
:00000001FF
