:100000000C945E000C947D000C947D000C947D009B
:100010000C947D000C947D000C947D000C947D006C
:100020000C947D000C947D000C947D000C947D005C
:100030000C947D000C94F6000C947D000C947D00D3
:100040000C947D000C947D000C947D000C947D003C
:100050000C947D000C947D000C947D000C947D002C
:100060000C947D000C947D000C947D000C947D001C
:100070000C947D000C947D000C947D000C947D000C
:100080000C947D000C947D000C947D0086029002FF
:10009000AD02CD02E502F302110329033703550334
:1000A0006D037B03A403A903B403CC03D203E503CC
:1000B000FD03030416042E043404470411241FBE58
:1000C000CFEFD0E4DEBFCDBF12E0A0E0B1E0E4E8C6
:1000D000FCE000E00BBF02C007900D92AE31B1070B
:1000E000D9F722E0AEE1B2E001C01D92AD32B20715
:1000F000E1F70E945A040C9440060C940000CF9340
:10010000DF9300D01F92CDB7DEB789837B836A83EC
:1001100089818A3031F48A819B81BC018DE00E9403
:100120007F0080EC90E0FC018081882F90E080725D
:100130009927892BB1F386EC90E02981FC0120837B
:1001400080E090E00F900F900F90DF91CF91089595
:10015000CF93DF93CDB7DEB781E890E02BE0FC01D1
:10016000208388E890E02DE730E0FC013183208394
:100170008FE690E022E0FC01208384E890E0FC011F
:100180001182108280910E0190910F01A0911001B7
:10019000B091110180931F0290932002A09321023D
:1001A000B09322028FE590E02FE530E0F901208145
:1001B0002068FC0120830000DF91CF910895CF9348
:1001C000DF93CDB7DEB781E890E0FC01108200003C
:1001D000DF91CF910895CF93DF93CDB7DEB781E064
:1001E00080931E020000DF91CF9108951F920F921D
:1001F00000905F000F92112400905B000F922F93EC
:100200003F934F935F936F937F938F939F93AF939E
:10021000BF93EF93FF93CF93DF93CDB7DEB780917A
:100220001F0290912002A0912102B0912202019719
:10023000A109B10980931F0290932002A09321028B
:10024000B093220280911F0290912002A09121027E
:10025000B0912202892B8A2B8B2B91F40E94EB0008
:1002600080910E0190910F01A0911001B0911101A8
:1002700080931F0290932002A0932102B093220248
:100280000000DF91CF91FF91EF91BF91AF919F91CE
:100290008F917F916F915F914F913F912F910F902F
:1002A00000925B000F9000925F000F901F901895D6
:1002B000CF93DF9300D000D0CDB7DEB769837A83C8
:1002C0008B839C8389819A81AB81BC8180930E0151
:1002D00090930F01A0931001B093110180910E0132
:1002E00090910F01A0911001B091110180931F0214
:1002F00090932002A0932102B093220200000F905D
:100300000F900F900F90DF91CF9108950F931F934F
:10031000CF93DF9300D000D0CDB7DEB769837A8367
:100320008B839C838091270290912802A0912902BF
:10033000B0912A029C01AD0169817A818B819C81F7
:100340000E94AC04882309F477C020E030E0A901C2
:1003500069817A818B819C810E94AC04882351F44D
:1003600081E990E021E930E0F90120812870FC0169
:10037000208309C081E990E021E930E0F901208182
:100380002360FC01208328E539E344E75FE36981CA
:100390007A818B819C810E94AC04882344F488E993
:1003A00090E02FEF3FEFFC013183208334C020E049
:1003B00034E244EF56E469817A818B819C810E940A
:1003C000CE05181634F488E990E0FC011182108201
:1003D00022C008E910E020E030E040E053E4698109
:1003E0007A818B819C810E94D305DC01CB019C0129
:1003F000AD0160E074E284EF9AE40E94B104DC0194
:10040000CB01BC01CD010E942305DC01CB0101978A
:10041000F8019183808384E990E0FC0111821082CD
:1004200089819A81AB81BC818093270290932802B5
:10043000A0932902B0932A0200000F900F900F9012
:100440000F90DF91CF911F910F910895CF93DF937C
:10045000CDB7DEB780E990E020E4FC01208381E99C
:1004600090E02BE0FC01208360E070E0CB010E9473
:1004700086010000DF91CF910895CF93DF93CDB730
:10048000DEB780E990E0FC01108281E990E0FC0198
:1004900010820000DF91CF910895CF93DF9300D0B9
:1004A00000D01F92CDB7DEB79D838C8380E290E0B1
:1004B000FC018081882F90E08170992721E0892BB1
:1004C00009F020E0298380E290E0FC0180818095A2
:1004D00082708A8380E290E0FC0180818095847044
:1004E0008B838C819D81092E000CAA0BBB0B40E0F5
:1004F00050E02BE030E0841B950B2817390708F4F7
:100500000BC18A5B9F4FFC010C94A30481E090E037
:100510009D838C8360E070E0CB010E948601FFC068
:100520008981882329F082E090E09D838C83F7C045
:100530008A81882329F085E090E09D838C83EFC039
:100540008B81882329F088E090E09D838C83E7C02D
:1005500081E090E09D838C83E2C090912B0280919A
:100560001201981740F08981882329F08BE090E0F0
:100570009D838C83D4C090912B0280911201981797
:1005800028F081E090E09D838C83C9C083E090E0F7
:100590009D838C8310922C02C2C080912B02882FE5
:1005A00090E08D599E4FFC01908180912C0289171B
:1005B00028F483E090E09D838C83B1C084E090E0D8
:1005C0009D838C8310922C02AAC080912C028823D8
:1005D00029F481E090E09D838C83A1C082E090E0CB
:1005E0009D838C839CC090912B028FE0981740F0E4
:1005F0008A81882329F08BE090E09D838C838FC0D3
:1006000090912B028FE0981728F081E090E09D8375
:100610008C8385C086E090E09D838C8310922C02B1
:100620007EC080912B02882F90E08C549E4FFC015D
:10063000908180912C02891728F486E090E09D83B8
:100640008C836DC087E090E09D838C8310922C0298
:1006500066C080912C02882329F487E090E09D8376
:100660008C835DC085E090E09D838C8358C0909121
:100670002B0282E1981740F08B81882329F08BE0D0
:1006800090E09D838C834BC090912B0282E1981760
:1006900028F081E090E09D838C8341C089E090E068
:1006A0009D838C8310922C023AC080912B02882F5C
:1006B00090E0845F9D4FFC01908180912C0289170E
:1006C00028F489E090E09D838C8329C08AE090E043
:1006D0009D838C8310922C0222C080912C0288234F
:1006E00029F48AE090E09D838C8319C088E090E033
:1006F0009D838C8314C08981882331F48A81882367
:1007000019F48B81882319F08BE090E002C081E01E
:1007100090E09D838C8303C01D821C8200008C812D
:100720009D81092E000CAA0BBB0B40E050E02BE092
:1007300030E0841B950B2817390708F4B1C08E5A96
:100740009F4FFC010C94A30481E090E09D838C8377
:10075000A7C0109223021092240210922502109238
:10076000260210922B029CC080912B02882F90E0D1
:10077000880F991F880F991F8D5E9E4FFC01808105
:100780009181A281B3818093230290932402A0934C
:100790002502B093260284C080912C028F5F809343
:1007A0002C027EC010922302109224021092250285
:1007B0001092260280912C028F5F80932C028091F0
:1007C0002B028F5F80932B026BC080912B02882FAE
:1007D00090E0880F991F880F991F88589E4FFC0141
:1007E00080819181A281B38180932302909324021E
:1007F000A0932502B093260253C080912C028F5FF4
:1008000080932C024DC01092230210922402109269
:1008100025021092260280912C028F5F80932C0279
:1008200080912B028F5F80932B023AC080912B0224
:10083000882F90E0880F991F880F991F8C539E4F27
:10084000FC0180819181A281B381809323029093E6
:100850002402A0932502B093260222C080912C028C
:100860008F5F80932C021CC01092230210922402EE
:10087000109225021092260280912C028F5F8093A5
:100880002C0280912B028F5F80932B0209C0109263
:1008900023021092240210922502109226020000D8
:1008A0008C819D810F900F900F900F900F90DF9192
:1008B000CF910895CF93DF9300D000D000D0CDB773
:1008C000DEB781E290E0FC01108282E290E02FEF3F
:1008D000FC01208384E290E02FEFFC01208385E27D
:1008E00090E0FC01108289E190E0A0E0B0E08B8311
:1008F0009C83AD83BE838B819C81AD81BE81BC0115
:10090000CD010E9458010E94A8000E9426021A826E
:10091000198289819A810E944D029A8389838091EC
:10092000230290912402A0912502B0912602BC01DD
:10093000CD010E948601000080911E028823E1F310
:1009400010921E02E6CFEE0FFF1F0024001C0BBE0C
:100950000790F691E02D09940E94590508F481E072
:1009600008950E94C5040C9494050E948D0558F0CA
:100970000E94860540F029F45F3F29F00C947D0524
:1009800051110C94C8050C9483050E94A50568F3C9
:100990009923B1F3552391F3951B550BBB27AA2738
:1009A00062177307840738F09F5F5F4F220F331F72
:1009B000441FAA1FA9F335D00E2E3AF0E0E832D03A
:1009C00091505040E695001CCAF72BD0FE2F29D03D
:1009D000660F771F881FBB1F261737074807AB070F
:1009E000B0E809F0BB0B802DBF01FF2793585F4F84
:1009F0003AF09E3F510578F00C947D050C94C805A3
:100A00005F3FE4F3983ED4F3869577956795B79565
:100A1000F7959F5FC9F7880F911D9695879597F970
:100A20000895E1E0660F771F881FBB1F62177307E9
:100A30008407BA0720F0621B730B840BBA0BEE1FFE
:100A400088F7E09508950E942A056894B1110C94E6
:100A5000C80508950E94AD0588F09F5798F0B92FFA
:100A60009927B751B0F0E1F0660F771F881F991FE3
:100A70001AF0BA95C9F714C0B13091F00E94C705B9
:100A8000B1E008950C94C705672F782F8827B85FC9
:100A900039F0B93FCCF3869577956795B395D9F73B
:100AA0003EF490958095709561957F4F8F4F9F4F45
:100AB0000895990F0008550FAA0BE0E8FEEF1616EF
:100AC0001706E807F907C0F012161306E407F50742
:100AD00098F0621B730B840B950B39F40A2661F0B6
:100AE000232B242B252B21F408950A2609F4A14059
:100AF000A6958FEF811D811D089597F99F6780E866
:100B000070E060E008959FEF80EC089500240A945F
:100B10001616170618060906089500240A941216D8
:100B20001306140605060895092E0394000C11F40B
:100B3000882352F0BB0F40F4BF2B11F460FF04C0B8
:100B40006F5F7F4F8F4F9F4F089557FD9058440F11
:100B5000551F59F05F3F71F04795880F97FB991F1C
:100B600061F09F3F79F087950895121613061406D9
:100B7000551FF2CF4695F1DF08C016161706180666
:100B8000991FF1CF86957105610508940895E89441
:100B9000BB2766277727CB0197F908950E9459054F
:100BA00008F48FEF08950E94E6050C9494050E94C6
:100BB000860538F00E948D0520F0952311F00C94E5
:100BC0007D050C94830511240C94C8050E94A5058D
:100BD00070F3959FC1F3950F50E0551F629FF00190
:100BE000729FBB27F00DB11D639FAA27F00DB11DA9
:100BF000AA1F649F6627B00DA11D661F829F222732
:100C0000B00DA11D621F739FB00DA11D621F839FB8
:100C1000A00D611D221F749F3327A00D611D231F8E
:100C2000849F600D211D822F762F6A2F11249F57DC
:100C300050409AF0F1F088234AF0EE0FFF1FBB1FDF
:100C4000661F771F881F91505040A9F79E3F51059E
:100C500080F00C947D050C94C8055F3FE4F3983E4A
:100C6000D4F3869577956795B795F795E7959F5F48
:100C7000C1F7FE2B880F911D9695879597F90895DA
:040C8000F894FFCF16
:100C840000000002000000007F00000000000100DE
:100C9400000014A4D0A4430000C443A4D0A443007F
:100CA40000DC430000C443A4D0A4430000000000BF
:100CB4000000000000DC4300D002440000DC4300DC
:100CC400D002440000DC430000C4430000000000E4
:100CD4000000000000DC43719DAE430000C443A447
:100CE400D082431309091313131327130909131388
:100CF400131327131313130FA4D0A443A4D0A44392
:100D0400A4D0A443A4D0A443A4D0A443A4D0A44373
:100D1400A4D0A4430000C44300D002447BD4924333
:100D2400A4D0A443719DAE43719DAE43719DAE4367
:100D3400719DAE43131327131327131313134F1368
:100D440013131312A4D08243A4D082430000C443DB
:100D54000000C4430000DC430000DC430000C44343
:100D6400719DAE43719DAE43A4D0A443A4D0A443CB
:100D74007BD492437BD49243A4D082430000C443E7
:100D84000000C443719DAE43719DAE43131313130E
:0E0D9400131327131313131313271313130032
:00000001FF
