:100000000C9446000C9465000C9465000C946500FB
:100010000C9465000C9465000C9465000C946500CC
:100020000C9465000C9465000C9465000C946500BC
:100030000C9465000C9465000C9465000C946500AC
:100040000C9465000C9465000C9465000C9465009C
:100050000C9465000C9465000C9465000C9465008C
:100060000C9465000C9465000C9465000C9465007C
:100070000C9465000C9465000C9465000C9465006C
:100080000C9465000C9465000C94650011241FBE4F
:10009000CFEFD0E4DEBFCDBF11E0A0E0B1E0E2E9F8
:1000A000F2E000E00BBF02C007900D92AE30B10746
:1000B000D9F721E0AEE0B1E001C01D92A031B20756
:1000C000E1F70E942A010C9447010C940000CF93A1
:1000D000DF9300D01F92CDB7DEB789837B836A831D
:1000E00089818A3031F48A819B81BC018DE00E9434
:1000F000670080EC90E0FC018081882F90E08072A6
:100100009927892BB1F386EC90E02981FC012083AB
:1001100080E090E00F900F900F90DF91CF910895C5
:10012000CF93DF9300D01F92CDB7DEB780E290E08F
:10013000FC01808181708B8319821A8280910E016B
:1001400090910F018230910511F18330910528F4CF
:10015000009749F0019771F041C08330910521F17A
:10016000049779F13BC081E090E090930F01809378
:100170000E0139C08B81882319F082E090E002C023
:1001800081E090E090930F0180930E012CC08B8151
:10019000882319F082E090E002C083E090E0909321
:1001A0000F0180930E011FC08B81882319F084E01A
:1001B00090E002C083E090E090930F0180930E01E5
:1001C00012C08B81882319F084E090E002C081E0A6
:1001D00090E090930F0180930E0105C010920F01E3
:1001E00010920E01000080910E0190910F0182305B
:1001F000910591F08330910528F40097A9F00197BB
:1002000039F015C08330910589F0049749F00FC08B
:1002100081E08A8319820BC01A8281E0898307C03A
:1002200081E08A83198203C0000001C0000085E2DA
:1002300090E02981222F30E0220F331F322F2A81B4
:10024000232BFC01208300000F900F900F90DF9173
:10025000CF910895CF93DF93CDB7DEB781E290E0E1
:10026000FC01108282E290E02FEFFC01208384E207
:1002700090E02FEFFC01208385E290E0FC011082EA
:1002800010920F0110920E010E949000FDCFF89481
:02029000FFCF9E
:0E0292000000000200000000670000000000F5
:00000001FF
