:100000000C9446000C9465000C9465000C946500FB
:100010000C9465000C9465000C9465000C946500CC
:100020000C9465000C9465000C9465000C946500BC
:100030000C9465000C9465000C9465000C946500AC
:100040000C9465000C9465000C9465000C9465009C
:100050000C9465000C9465000C9465000C9465008C
:100060000C9465000C9465000C9465000C9465007C
:100070000C9465000C9465000C9465000C9465006C
:100080000C9465000C9465000C94650011241FBE4F
:10009000CFEFD0E4DEBFCDBF11E0A0E0B1E0EEE2F3
:1000A000F3E000E00BBF02C007900D92AE30B10745
:1000B000D9F721E0AEE0B1E001C01D92A131B20755
:1000C000E1F70E946F010C9495010C940000CF930E
:1000D000DF9300D01F92CDB7DEB789837B836A831D
:1000E00089818A3031F48A819B81BC018DE00E9434
:1000F000670080EC90E0FC018081882F90E08072A6
:100100009927892BB1F386EC90E02981FC012083AB
:1001100080E090E00F900F900F90DF91CF910895C5
:10012000CF93DF9300D000D0CDB7DEB780E290E070
:10013000FC0180818170898380E290E0FC018081F4
:1001400082708A8380E290E0FC01808184708B83DE
:1001500080E290E0FC01808180788C8380910F01A7
:10016000909110018230910539F18330910528F486
:10017000009771F0019799F074C08430910509F4EB
:1001800053C08430910558F1059709F45DC069C0EA
:1001900081E090E09093100180930F0167C08B8104
:1001A000882319F082E090E002C081E090E0909313
:1001B000100180930F015AC08A81882349F48B81F2
:1001C000882319F083E090E005C081E090E002C050
:1001D00085E090E09093100180930F0147C08B81E0
:1001E0008823D9F48B81882331F48A81882319F4F8
:1001F0008981882379F08B81882349F48A81882337
:1002000019F48981882319F084E090E008C081E026
:1002100090E005C082E090E002C083E090E090931F
:10022000100180930F0122C08A81882319F48981EB
:10023000882319F084E090E002C081E090E0909380
:10024000100180930F0112C08C81882319F081E086
:1002500090E002C085E090E09093100180930F0140
:1002600005C01092100110920F01000080910F0143
:100270009091100182309105C1F08330910528F4EE
:100280000097A9F0019751F017C08430910589F0CB
:100290008430910580F0059721F00EC010920E0178
:1002A0000BC081E080930E0107C0000005C0000074
:1002B00003C0000001C0000085E290E020910E0123
:1002C000FC01208388E290E02C81FC012083000067
:1002D0000F900F900F900F90DF91CF910895CF93D3
:1002E000DF93CDB7DEB781E290E0FC01108282E2BD
:1002F00090E02FEFFC01208384E290E02FEFFC01DF
:10030000208385E290E0FC01108287E290E02FEFED
:10031000FC01208388E290E0FC0110821092100121
:0E03200010920F010E949000FDCFF894FFCFC5
:0E032E00000000020000000067000000000058
:00000001FF
