:100000000C9446000C9465000C9465000C946500FB
:100010000C9465000C9465000C9465000C946500CC
:100020000C9465000C9465000C9465000C946500BC
:100030000C9465000C9465000C9465000C946500AC
:100040000C9465000C9465000C9465000C9465009C
:100050000C9465000C9465000C9465000C9465008C
:100060000C9465000C9465000C9465000C9465007C
:100070000C9465000C9465000C9465000C9465006C
:100080000C9465000C9465000C94650011241FBE4F
:10009000CFEFD0E4DEBFCDBF11E0A0E0B1E0EEE7EE
:1000A000F4E000E00BBF02C007900D92AE30B10744
:1000B000D9F721E0AEE0B1E001C01D92A231B20754
:1000C000E1F70E9417020C943D020C940000CF93BC
:1000D000DF9300D01F92CDB7DEB789837B836A831D
:1000E00089818A3031F48A819B81BC018DE00E9434
:1000F000670080EC90E0FC018081882F90E08072A6
:100100009927892BB1F386EC90E02981FC012083AB
:1001100080E090E00F900F900F90DF91CF910895C5
:10012000CF93DF93CDB7DEB727970FB6F894DEBF36
:100130000FBECDBF80E290E0FC0180818170898399
:1001400080E290E0FC01808182708A8380E290E00E
:10015000FC01808184708B8380E290E0FC018081CF
:1001600080788C8381E08D8382E08E8381E08F8331
:1001700080911001909111018230910521F183301D
:10018000910528F4009759F0019781F0F9C0833068
:10019000910509F47DC0049709F48DC0F1C081E098
:1001A00090E09093110180931001EFC08B81882320
:1001B00019F082E090E002C081E090E0909311019C
:1001C00080931001E2C08C81882339F081E090E0B7
:1001D0009093110180931001D8C08A81882339F14E
:1001E00080910E018330E0F480910E01882F90E021
:1001F0009E012B5F3F4F820F931FFC0190818A81EC
:10020000981739F482E090E09093110180931001E7
:10021000BCC081E090E09093110180931001B5C0C3
:1002200081E090E09093110180931001AEC089812C
:10023000882339F180910E018330E0F480910E0122
:10024000882F90E09E012B5F3F4F820F931FFC0190
:1002500090818981981739F482E090E090931101A0
:100260008093100192C081E090E0909311018093FF
:1002700010018BC081E090E09093110180931001F8
:1002800084C082E090E090931101809310017DC0C2
:100290008C81882349F48B81882319F084E090E0D5
:1002A00005C083E090E002C081E090E090931101EE
:1002B000809310016AC08C81882339F081E090E03E
:1002C000909311018093100160C08A81882339F1D5
:1002D00080910E018330E0F480910E01882F90E030
:1002E0009E012B5F3F4F820F931FFC0190818A81FB
:1002F000981739F484E090E09093110180931001F5
:1003000044C083E090E090931101809310013DC0C0
:1003100083E090E0909311018093100136C08981B1
:10032000882339F180910E018330E0F480910E0131
:10033000882F90E09E012B5F3F4F820F931FFC019F
:1003400090818981981739F484E090E090931101AD
:10035000809310011AC083E090E090931101809384
:10036000100113C083E090E090931101809310017D
:100370000CC084E090E0909311018093100105C0BF
:1003800010921101109210010000809110019091C3
:1003900011018230910599F08330910528F400977E
:1003A00061F1019739F02EC083309105A1F00497D7
:1003B000C1F028C010920E0110920F0123C08A8153
:1003C000882319F489818823D1F080910E018F5FF1
:1003D00080930E0114C010920E0181E080930F01F2
:1003E00011C08A81882319F48981882351F0809172
:1003F0000E018F5F80930E0104C0000003C0000057
:1004000001C0000085E290E020910F01FC012083F3
:1004100088E290E02981FC012083000027960FB636
:10042000F894DEBF0FBECDBFDF91CF910895CF937B
:10043000DF93CDB7DEB781E290E0FC01108282E26B
:1004400090E02FEFFC01208384E290E02FEFFC018D
:10045000208385E290E0FC01108287E290E02FEF9C
:10046000FC01208388E290E0FC01108210921101CF
:0E047000109210010E949000FDCFF894FFCF73
:0E047E00000000020000000067000000000007
:00000001FF
