:100000000C9454000C9473000C9473000C947300C3
:100010000C9473000C9473000C9473000C94730094
:100020000C9473000C9473000C9473000C94730084
:100030000C9473000C94DE020C9473000C94730007
:100040000C9473000C9473000C9473000C94730064
:100050000C9473000C9473000C9473000C94730054
:100060000C9473000C9473000C9473000C94730044
:100070000C9473000C9473000C9473000C94730034
:100080000C9473000C9473000C947300C204C704A6
:10009000D304F2040D052D054805B605800583053A
:1000A0008E059C05A205B00511241FBECFEFD0E43C
:1000B000DEBFCDBF11E0A0E0B1E0E8E6FFE000E088
:1000C0000BBF02C007900D92AC31B107D9F721E008
:1000D000ACE1B1E001C01D92A634B207E1F70E9485
:1000E000D4050C94B2070C940000CF93DF9300D09A
:1000F0001F92CDB7DEB789837B836A8389818A307B
:1001000031F48A819B81BC018DE00E94750080ECF6
:1001100090E0FC018081882F90E080729927892BE4
:10012000B1F386EC90E02981FC01208380E090E02F
:100130000F900F900F90DF91CF910895CF93DF93A1
:10014000CDB7DEB728970FB6F894DEBF0FBECDBF90
:100150009A8389834B835C836D837E8338872F8367
:1001600080911C01282F30E082E090E028173907A9
:1001700008F06BC080911C01282F30E0C901880F66
:10018000991F820F931F880F991F880F991F875DF2
:100190009E4F29813A81FC013183208380911C018B
:1001A000682F70E080911C01282F30E0C901880F72
:1001B000991F820F931F880F991F880F991FAC01F9
:1001C000455D5E4F8B819C81AD81BE81FA0180834C
:1001D0009183A283B383C901880F991F820F931F54
:1001E000880F991F880F991F855D9E4FFC01208104
:1001F000318142815381CB01880F991F860F971F50
:10020000880F991F880F991F815D9E4FFC012083E5
:1002100031834283538380911C01282F30E0C90130
:10022000880F991F820F931F880F991F880F991F9E
:100230008D5C9E4F2F813885FC0131832083809116
:100240001C018F5F80931C0101C0000028960FB62F
:10025000F894DEBF0FBECDBFDF91CF910895CF934D
:10026000DF93CDB7DEB72C970FB6F894DEBF0FBE85
:10027000CDBF6D837E838F83988729873A874B878D
:100280005C878D819E81AF81B88529853A854B85B4
:100290005C85BC01CD010E942806DC01CB0189836D
:1002A0009A83AB83BC8389819A81AB81BC81892B82
:1002B0008A2B8B2B29F489859A85AB85BC8511C047
:1002C00089859A85AB85BC858D839E83AF83B887EE
:1002D00089819A81AB81BC8189879A87AB87BC87EA
:1002E000D0CFBC01CD012C960FB6F894DEBF0FBE67
:1002F000CDBFDF91CF910895CF93DF9300D000D091
:1003000000D0CDB7DEB780912B0190912C01A09148
:100310002D01B0912E0189839A83AB83BC8381E048
:1003200090E09E838D8325C02D813E81C901880F79
:10033000991F820F931F880F991F880F991F855D42
:100340009E4FFC01208131814281538189819A81B4
:10035000AB81BC81BC01CD010E942F01DC01CB012E
:1003600089839A83AB83BC838D819E8101969E8312
:100370008D8380911C01282F30E08D819E8128176C
:10038000390794F689819A81AB81BC8180934201BF
:1003900090934301A0934401B09345010000269639
:1003A0000FB6F894DEBF0FBECDBFDF91CF91089599
:1003B000CF93DF93CDB7DEB781E890E02BE0FC016F
:1003C000208388E890E02DE730E0FC013183208332
:1003D0008FE690E022E0FC01208384E890E0FC01BD
:1003E0001182108280910E0190910F01A091100155
:1003F000B091110180931E0190931F01A0932001E1
:10040000B09321018FE590E02FE530E0F9012081E4
:100410002068FC0120830000DF91CF910895CF93E5
:10042000DF93CDB7DEB781E890E0FC0110820000D9
:10043000DF91CF9108950F931F93CF93DF931F9276
:10044000CDB7DEB71982AAC08981282F30E0C90153
:10045000880F991F820F931F880F991F880F991F6C
:10046000815D9E4FFC0120813181428153818981D0
:10047000682F70E0CB01880F991F860F971F880F98
:10048000991F880F991F855D9E4FFC018081918186
:10049000A281B381281739074A075B0708F449C0CE
:1004A0008981082F10E08981282F30E0C901880F49
:1004B000991F820F931F880F991F880F991F8D5CBA
:1004C0009E4FFC01408151818981282F30E0C90174
:1004D000880F991F820F931F880F991F880F991FEC
:1004E000875D9E4FFC0180819181FA0109959C01F5
:1004F000C801880F991F800F911F880F991F880FBF
:10050000991F875D9E4FFC01318320838981282FAD
:1005100030E0C901880F991F820F931F880F991F20
:10052000880F991F815D9E4FFC01108211821282FB
:1005300013828981682F70E08981282F30E0C901FA
:10054000880F991F820F931F880F991F880F991F7B
:10055000815D9E4FFC0120813181428153818091D8
:10056000420190914301A0914401B0914501280FAF
:10057000391F4A1F5B1FCB01880F991F860F971FDA
:10058000880F991F880F991F815D9E4FFC01208362
:1005900031834283538389818F5F89838981282FA7
:1005A00030E082E090E02817390708F44DCF0000D2
:1005B0000F90DF91CF911F910F9108951F920F928D
:1005C00000905F000F92112400905B000F922F9318
:1005D0003F934F935F936F937F938F939F93AF93CB
:1005E000BF93EF93FF93CF93DF93CDB7DEB78091A7
:1005F0001E0190911F01A0912001B091210101974E
:10060000A109B10980931E0190931F01A0932001BD
:10061000B093210180911E0190911F01A0912001B2
:10062000B0912101892B8A2B8B2B91F40E941B0204
:1006300080910E0190910F01A0911001B0911101D4
:1006400080931E0190931F01A0932001B09321017C
:100650000000DF91CF91FF91EF91BF91AF919F91FA
:100660008F917F916F915F914F913F912F910F905B
:1006700000925B000F9000925F000F901F90189502
:10068000CF93DF9300D000D0CDB7DEB769837A83F4
:100690008B839C8389819A81AB81BC8180930E017D
:1006A00090930F01A0931001B093110180910E015E
:1006B00090910F01A0911001B091110180931E0142
:1006C00090931F01A0932001B093210100000F908F
:1006D0000F900F900F90DF91CF9108950F931F937C
:1006E000CF93DF9300D000D0CDB7DEB769837A8394
:1006F0008B839C838091220190912301A0912401FE
:10070000B09125019C01AD0169817A818B819C8129
:100710000E94C006882309F448C020E030E0A90107
:1007200069817A818B819C810E94C00688232CF488
:1007300087E490E0FC01108228C020E030E048EC23
:1007400052E469817A818B819C810E94AD071816E1
:1007500034F487E490E02FEFFC01208316C007E417
:1007600010E089819A81AB81BC819C01AD01BC0103
:10077000CD010E945406DC01CB01BC01CD010E94D9
:10078000C506DC01CB01F801808386E490E0FC0122
:10079000108289819A81AB81BC81809322019093E0
:1007A0002301A0932401B093250100000F900F9026
:1007B0000F900F90DF91CF911F910F910895CF93DC
:1007C000DF93CDB7DEB784E490E021E8FC0120831D
:1007D00085E490E023E0FC01208360E070E0CB0141
:1007E0000E946E030000DF91CF910895CF93DF93B5
:1007F000CDB7DEB784E490E0FC01108285E490E0A0
:10080000FC0110820000DF91CF910895CF93DF9318
:1008100000D000D01F92CDB7DEB79D838C8380E2DD
:1008200090E0FC018081882F90E08170992721E081
:10083000892B09F020E0298381E08A831B828C8147
:100840009D8182309105F1F0833091052CF4009761
:1008500049F0019761F037C083309105F1F00497BA
:1008600039F131C081E090E09D838C832FC0898174
:10087000882319F082E090E002C081E090E09D833F
:100880008C8324C08981882319F082E090E002C023
:1008900083E090E09D838C8319C08981882319F0BF
:1008A00084E090E002C083E090E09D838C830EC0E2
:1008B0008981882319F084E090E002C081E090E013
:1008C0009D838C8303C01D821C8200008C819D81CE
:1008D00082309105B1F0833091052CF4009749F0F6
:1008E000019759F01AC08330910579F0049789F087
:1008F00014C08A818093410110C08A818093410194
:100900000CC08B818093410108C08B818093410191
:1009100004C08A818093410100008C819D810F90E9
:100920000F900F900F900F90DF91CF910895CF937C
:10093000DF9300D000D0CDB7DEB79C838B8380E2FD
:1009400090E0FC01808180958270898380E290E054
:10095000FC018081809584708A838B819C81092E23
:10096000000CAA0BBB0B40E050E026E030E0841BFB
:10097000950B2817390708F4ABC08A5B9F4FFC0121
:100980000C944A0681E090E09C838B83A4C0809104
:100990004101882319F081E090E002C082E090E0FC
:1009A0009C838B8398C08981882319F08A8188234E
:1009B000A1F08981882319F48A81882351F48091D8
:1009C0004101882319F081E090E006C082E090E0C8
:1009D00003C085E090E003C002C083E090E09C8308
:1009E0008B8379C08981882351F08A81882339F4E7
:1009F00084E090E09C838B83109226016CC08091F0
:100A00004101882329F081E090E09C838B8363C0BF
:100A100082E090E09C838B835EC0809141018823BB
:100A2000B9F48981882321F080912601853068F00E
:100A30008981882339F080912601853018F083E080
:100A400090E008C082E090E005C084E090E002C041
:100A500081E090E09C838B833EC08981882351F4A0
:100A60008A81882339F086E090E09C838B83109202
:100A7000260131C080914101882329F081E090E076
:100A80009C838B8328C082E090E09C838B8323C06F
:100A9000809141018823B9F48A81882321F08091D3
:100AA0002601893068F08A81882339F080912601F7
:100AB000893018F085E090E008C082E090E005C041
:100AC00086E090E002C081E090E09C838B8303C0CD
:100AD0001C821B8200008B819C81092E000CAA0BBA
:100AE000BB0B40E050E026E030E0841B950B28175C
:100AF000390708F440C0835B9F4FFC010C944A0601
:100B00001092270138C080912801882319F0809124
:100B1000280101C08EE1809327012DC0809127011B
:100B2000803530F580912701865F80932701809181
:100B30002701809328011CC0809126018F5F80933C
:100B4000260119C0809127018F31A0F080912701E3
:100B50008A508093270180912701809328010AC041
:100B6000809126018F5F8093260105C0000003C09D
:100B7000000001C0000080912701882F90E0A0E0D4
:100B8000B0E0BC01CD010E94FB06DC01CB01BC0141
:100B9000CD010E946E038B819C810F900F900F906E
:100BA0000F90DF91CF910895CF93DF93CDB7DEB74C
:100BB00084E290E02FEFFC01208385E290E0FC01CD
:100BC000108281E290E0FC01108282E290E02FEF3F
:100BD000FC01208388EC90E0A0E0B0E026E034E067
:100BE000AC01BD0180E090E00E949E0088EC90E0A6
:100BF000A0E0B0E027E934E0AC01BD0180E090E086
:100C00000E949E000E947C018091420190914301CC
:100C1000A0914401B0914501BC01CD010E94400367
:100C20000E94D80183E590E023E530E0F9012081BE
:100C3000217FFC01208383E590E023E530E0F9018A
:100C400020812160FC0120830E94DF038895FECF74
:100C5000A1E21A2EAA1BBB1BFD010DC0AA1FBB1FC0
:100C6000EE1FFF1FA217B307E407F50720F0A21B32
:100C7000B30BE40BF50B661F771F881F991F1A949F
:100C800069F760957095809590959B01AC01BD01C9
:100C9000CF010895EE0FFF1F0024001C0BBE07902C
:100CA000F691E02D09945058BB27AA270E946B06A5
:100CB0000C9473070E94650738F00E946C0720F0BF
:100CC00039F49F3F19F426F40C9462070EF4E09572
:100CD000E7FB0C945C07E92F0E94840758F3BA17CE
:100CE000620773078407950720F079F4A6F50C9442
:100CF000A6070EF4E0950B2EBA2FA02D0B01B9011B
:100D000090010C01CA01A0011124FF27591B99F081
:100D1000593F50F4503E68F11A16F040A22F232F8D
:100D2000342F4427585FF3CF469537952795A795DD
:100D3000F0405395C9F77EF41F16BA0B620B730B84
:100D4000840BBAF09150A1F0FF0FBB1F661F771FF5
:100D5000881FC2F70EC0BA0F621F731F841F48F4AA
:100D6000879577956795B795F7959E3F08F0B0CF33
:100D70009395880F08F09927EE0F9795879508951A
:100D80000E94380708F481E008950E94CC06689418
:100D9000B1110C94A70708950E948C0788F09F5703
:100DA00098F0B92F9927B751B0F0E1F0660F771F8F
:100DB000881F991F1AF0BA95C9F714C0B13091F085
:100DC0000E94A607B1E008950C94A607672F782F1C
:100DD0008827B85F39F0B93FCCF38695779567954A
:100DE000B395D9F73EF490958095709561957F4FB6
:100DF0008F4F9F4F0895E89409C097FB3EF490955C
:100E00008095709561957F4F8F4F9F4F9923A9F0E3
:100E1000F92F96E9BB279395F69587957795679572
:100E2000B795F111F8CFFAF4BB0F11F460FF1BC0B6
:100E30006F5F7F4F8F4F9F4F16C0882311F096E949
:100E400011C0772321F09EE8872F762F05C06623F7
:100E500071F096E8862F70E060E02AF09A95660FB0
:100E6000771F881FDAF7880F9695879597F9089569
:100E7000990F0008550FAA0BE0E8FEEF16161706AB
:100E8000E807F907C0F012161306E407F50798F013
:100E9000621B730B840B950B39F40A2661F0232B2C
:100EA000242B252B21F408950A2609F4A140A695A8
:100EB0008FEF811D811D089597F99F6780E870E08D
:100EC00060E008959FEF80EC089500240A941616C0
:100ED000170618060906089500240A941216130628
:100EE000140605060895092E0394000C11F48823B6
:100EF00052F0BB0F40F4BF2B11F460FF04C06F5FD2
:100F00007F4F8F4F9F4F089557FD9058440F551FA7
:100F100059F05F3F71F04795880F97FB991F61F07B
:100F20009F3F79F087950895121613061406551FF2
:100F3000F2CF4695F1DF08C0161617061806991F5E
:100F4000F1CF86957105610508940895E894BB2753
:100F500066277727CB0197F908950E94380708F490
:080F60008FEF0895F894FFCF14
:100F68000000000200000000750000000000010001
:0C0F780000000200C8000000C8000000DB
:00000001FF
