:100000000C9446000C9465000C9465000C946500FB
:100010000C9465000C9465000C9465000C946500CC
:100020000C9465000C9465000C9465000C946500BC
:100030000C9465000C94D0020C9465000C9465003F
:100040000C9465000C9465000C9465000C9465009C
:100050000C9465000C9465000C9465000C9465008C
:100060000C9465000C9465000C9465000C9465007C
:100070000C9465000C9465000C9465000C9465006C
:100080000C9465000C9465000C94650011241FBE4F
:10009000CFEFD0E4DEBFCDBF11E0A0E0B1E0ECE2F5
:1000A000FCE000E00BBF02C007900D92AA31B1073F
:1000B000D9F721E0AAE1B1E001C01D92A633B20751
:1000C000E1F70E947F040C9414060C940000CF9377
:1000D000DF9300D01F92CDB7DEB789837B836A831D
:1000E00089818A3031F48A819B81BC018DE00E9434
:1000F000670080EC90E0FC018081882F90E08072A6
:100100009927892BB1F386EC90E02981FC012083AB
:1001100080E090E00F900F900F90DF91CF910895C5
:10012000CF93DF93CDB7DEB728970FB6F894DEBF35
:100130000FBECDBF9A8389834B835C836D837E839F
:1001400038872F8380911A01282F30E081E090E0DA
:100150002817390708F06BC080911A01282F30E06A
:10016000C901880F991F820F931F880F991F880F4D
:10017000991F8B5D9E4F29813A81FC013183208339
:1001800080911A01682F70E080911A01282F30E0C9
:10019000C901880F991F820F931F880F991F880F1D
:1001A000991FAC01495D5E4F8B819C81AD81BE8101
:1001B000FA0180839183A283B383C901880F991FB9
:1001C000820F931F880F991F880F991F895D9E4F7B
:1001D000FC012081318142815381CB01880F991F1D
:1001E000860F971F880F991F880F991F855D9E4F57
:1001F000FC01208331834283538380911A01282F8D
:1002000030E0C901880F991F820F931F880F991F33
:10021000880F991F815D9E4F2F813885FC013183A6
:10022000208380911A018F5F80931A0101C0000022
:1002300028960FB6F894DEBF0FBECDBFDF91CF91E9
:100240000895CF93DF93CDB7DEB72C970FB6F89410
:10025000DEBF0FBECDBF6D837E838F8398872987D6
:100260003A874B875C878D819E81AF81B8852985D0
:100270003A854B855C85BC01CD010E94D004DC0130
:10028000CB0189839A83AB83BC8389819A81AB81BB
:10029000BC81892B8A2B8B2B29F489859A85AB8588
:1002A000BC8511C089859A85AB85BC858D839E836D
:1002B000AF83B88789819A81AB81BC8189879A870E
:1002C000AB87BC87D0CFBC01CD012C960FB6F8947C
:1002D000DEBF0FBECDBFDF91CF910895CF93DF93E7
:1002E00000D000D000D0CDB7DEB78091270190912B
:1002F0002801A0912901B0912A0189839A83AB83B7
:10030000BC8381E090E09E838D8325C02D813E815A
:10031000C901880F991F820F931F880F991F880F9B
:10032000991F895D9E4FFC0120813181428153815B
:1003300089819A81AB81BC81BC01CD010E942101E0
:10034000DC01CB0189839A83AB83BC838D819E8141
:1003500001969E838D8380911A01282F30E08D8134
:100360009E812817390794F689819A81AB81BC81D7
:100370008093310190933201A0933301B093340103
:10038000000026960FB6F894DEBF0FBECDBFDF91FA
:10039000CF910895CF93DF93CDB7DEB781E890E09A
:1003A0002BE0FC01208388E890E02DE730E0FC01A1
:1003B000318320838FE690E022E0FC01208384E8F3
:1003C00090E0FC011182108280910E0190910F014A
:1003D000A0911001B091110180931C0190931D0117
:1003E000A0931E01B0931F018FE590E02FE530E050
:1003F000F90120812068FC0120830000DF91CF916A
:100400000895CF93DF93CDB7DEB781E890E0FC018C
:1004100010820000DF91CF9108950F931F93CF9327
:10042000DF931F92CDB7DEB71982AAC08981282F2A
:1004300030E0C901880F991F820F931F880F991F01
:10044000880F991F855D9E4FFC012081318142817B
:1004500053818981682F70E0CB01880F991F860F27
:10046000971F880F991F880F991F895D9E4FFC0168
:1004700080819181A281B381281739074A075B07E0
:1004800008F449C08981082F10E08981282F30E0C5
:10049000C901880F991F820F931F880F991F880F1A
:1004A000991F815D9E4FFC01408151818981282FD8
:1004B00030E0C901880F991F820F931F880F991F81
:1004C000880F991F8B5D9E4FFC0180819181FA01FD
:1004D00009959C01C801880F991F800F911F880FF3
:1004E000991F880F991F8B5D9E4FFC0131832083DC
:1004F0008981282F30E0C901880F991F820F931F2F
:10050000880F991F880F991F855D9E4FFC011082EF
:100510001182128213828981682F70E08981282FCD
:1005200030E0C901880F991F820F931F880F991F10
:10053000880F991F855D9E4FFC012081318142818A
:1005400053818091310190913201A0913301B0919A
:100550003401280F391F4A1F5B1FCB01880F991FD9
:10056000860F971F880F991F880F991F855D9E4FD3
:10057000FC01208331834283538389818F5F898388
:100580008981282F30E081E090E02817390708F4AE
:100590004DCF00000F90DF91CF911F910F910895E3
:1005A0001F920F9200905F000F92112400905B0049
:1005B0000F922F933F934F935F936F937F938F93FC
:1005C0009F93AF93BF93EF93FF93CF93DF93CDB7F9
:1005D000DEB780911C0190911D01A0911E01B09188
:1005E0001F010197A109B10980931C0190931D017E
:1005F000A0931E01B0931F0180911C0190911D01D9
:10060000A0911E01B0911F01892B8A2B8B2B91F495
:100610000E940D0280910E0190910F01A091100196
:10062000B091110180931C0190931D01A0931E01B4
:10063000B0931F010000DF91CF91FF91EF91BF9127
:10064000AF919F918F917F916F915F914F913F916A
:100650002F910F9000925B000F9000925F000F901F
:100660001F901895CF93DF9300D000D0CDB7DEB7A1
:1006700069837A838B839C8389819A81AB81BC81D6
:1006800080930E0190930F01A0931001B09311017C
:1006900080910E0190910F01A0911001B091110174
:1006A00080931C0190931D01A0931E01B0931F0124
:1006B00000000F900F900F900F90DF91CF91089551
:1006C0000F931F93CF93DF9300D000D0CDB7DEB749
:1006D00069837A838B839C8380912001909121018F
:1006E000A0912201B09123019C01AD0169817A8121
:1006F0008B819C810E945F05882309F466C020E0FD
:1007000030E0A90169817A818B819C810E945F051B
:10071000882351F485E490E025E430E0F90120815C
:100720002870FC01208309C085E490E025E430E0D6
:10073000F90120812360FC01208320E030E0A90141
:1007400069817A818B819C810E945F0588232CF4CA
:1007500087E490E0FC01108228C020E030E048EC03
:1007600052E469817A818B819C810E940F06181660
:1007700034F487E490E02FEFFC01208316C007E4F7
:1007800010E089819A81AB81BC819C01AD01BC01E3
:10079000CD010E94F304DC01CB01BC01CD010E941C
:1007A0006405DC01CB01F801808386E490E0FC0164
:1007B000108289819A81AB81BC81809320019093C2
:1007C0002101A0932201B093230100000F900F900C
:1007D0000F900F90DF91CF911F910F910895CF93BC
:1007E000DF93CDB7DEB784E490E021E8FC012083FD
:1007F00085E490E023E0FC01208360E070E0CB0121
:100800000E9460030000DF91CF910895CF93DF93A2
:10081000CDB7DEB784E490E0FC01108285E490E07F
:10082000FC0110820000DF91CF910895CF93DF93F8
:1008300000D0CDB7DEB79A83898389819A818130D0
:10084000910551F082309105F9F0892BA9F581E0ED
:1008500090E09A83898333C080912401282F30E06F
:1008600080911201082E000C990B281739072CF4DF
:1008700081E090E09A83898322C082E090E09A83AD
:100880008983109224011BC080912401282F30E01D
:1008900080911301082E000C990B281739072CF4AE
:1008A00082E090E09A8389830AC081E090E09A8395
:1008B00089831092240103C01A8219820000898161
:1008C0009A818130910519F0029749F011C0809109
:1008D00024018F5F809324011092350109C080911B
:1008E00024018F5F8093240181E080933501000013
:1008F00089819A810F900F90DF91CF910895CF93C6
:10090000DF9300D000D0CDB7DEB784E290E02FEFC8
:10091000FC01208385E290E0FC01108281E290E0FE
:10092000FC01108282E290E02FEFFC01208384E63C
:1009300090E0A0E0B0E08093310190933201A09369
:100940003301B09334018091310190913201A09133
:100950003301B0913401BC01CD010E9432030E94E9
:10096000CA0183E590E023E530E0F9012081217F91
:10097000FC01208383E590E023E530E0F90120814C
:100980002160FC0120830E94EF0319821A821B82DE
:100990001C8260E070E084EB92E40E946003F9CF77
:1009A000A1E21A2EAA1BBB1BFD010DC0AA1FBB1F73
:1009B000EE1FFF1FA217B307E407F50720F0A21BE5
:1009C000B30BE40BF50B661F771F881F991F1A9452
:1009D00069F760957095809590959B01AC01BD017C
:1009E000CF0108955058BB27AA270E940A050C94EE
:1009F000D5050E94C70538F00E94CE0520F039F4D5
:100A00009F3F19F426F40C94C4050EF4E095E7FB1F
:100A10000C94BE05E92F0E94E60558F3BA17620749
:100A200073078407950720F079F4A6F50C9408065F
:100A30000EF4E0950B2EBA2FA02D0B01B9019001F9
:100A40000C01CA01A0011124FF27591B99F0593F3D
:100A500050F4503E68F11A16F040A22F232F342F85
:100A60004427585FF3CF469537952795A795F040D3
:100A70005395C9F77EF41F16BA0B620B730B840BE8
:100A8000BAF09150A1F0FF0FBB1F661F771F881FA0
:100A9000C2F70EC0BA0F621F731F841F48F48795F8
:100AA00077956795B795F7959E3F08F0B0CF9395EA
:100AB000880F08F09927EE0F9795879508950E9463
:100AC0009A0508F481E008950E946B056894B111BD
:100AD0000C94090608950E94EE0588F09F5798F03F
:100AE000B92F9927B751B0F0E1F0660F771F881F33
:100AF000991F1AF0BA95C9F714C0B13091F00E944D
:100B00000806B1E008950C940806672F782F88270F
:100B1000B85F39F0B93FCCF3869577956795B39573
:100B2000D9F73EF490958095709561957F4F8F4FE2
:100B30009F4F0895990F0008550FAA0BE0E8FEEFAC
:100B400016161706E807F907C0F012161306E40791
:100B5000F50798F0621B730B840B950B39F40A268A
:100B600061F0232B242B252B21F408950A2609F468
:100B7000A140A6958FEF811D811D089597F99F676C
:100B800080E870E060E008959FEF80EC0895002415
:100B90000A941616170618060906089500240A94E2
:100BA00012161306140605060895092E0394000C68
:100BB00011F4882352F0BB0F40F4BF2B11F460FFF7
:100BC00004C06F5F7F4F8F4F9F4F089557FD905820
:100BD000440F551F59F05F3F71F04795880F97FB01
:100BE000991F61F09F3F79F08795089512161306BB
:100BF0001406551FF2CF4695F1DF08C016161706EA
:100C00001806991FF1CF869571056105089408951E
:100C1000E894BB2766277727CB0197F908950E94B0
:0C0C20009A0508F48FEF0895F894FFCFB8
:100C2C00000000020000000067000000000001004E
:0A0C3C0000000202010004000000A5
:00000001FF
