:100000000C9454000C9473000C9473000C947300C3
:100010000C9473000C9473000C9473000C94730094
:100020000C9473000C9473000C9473000C94730084
:100030000C9473000C94EC000C9473000C947300FB
:100040000C9473000C9473000C9473000C94730064
:100050000C9473000C9473000C9473000C94730054
:100060000C9473000C9473000C9473000C94730044
:100070000C9473000C9473000C9473000C94730034
:100080000C9473000C9473000C9473009E01A501F2
:10009000B201BF01CC01E301F0012C0217022C02D6
:1000A0001C022C0224022C0211241FBECFEFD0E42C
:1000B000DEBFCDBF11E0A0E0B1E0EEEDF4E000E086
:1000C0000BBF02C007900D92A231B107D9F721E012
:1000D000A2E1B1E001C01D92AA31B207E1F70E948E
:1000E00038020C946D020C940000CF93DF9300D083
:1000F0001F92CDB7DEB789837B836A8389818A307B
:1001000031F48A819B81BC018DE00E94750080ECF6
:1001100090E0FC018081882F90E080729927892BE4
:10012000B1F386EC90E02981FC01208380E090E02F
:100130000F900F900F90DF91CF910895CF93DF93A1
:10014000CDB7DEB781E890E02BE0FC01208388E8A2
:1001500090E02DE730E0FC01318320838FE690E0D2
:1001600022E0FC01208384E890E0FC0111821082EF
:1001700080910E0190910F01A0911001B091110199
:100180008093130190931401A0931501B09316016D
:100190008FE590E02FE530E0F90120812068FC0137
:1001A00020830000DF91CF910895CF93DF93CDB7E7
:1001B000DEB781E890E0FC0110820000DF91CF9172
:1001C0000895CF93DF93CDB7DEB781E0809312011E
:1001D0000000DF91CF9108951F920F9200905F0071
:1001E0000F92112400905B000F922F933F934F9337
:1001F0005F936F937F938F939F93AF93BF93EF938F
:10020000FF93CF93DF93CDB7DEB780911301909129
:100210001401A0911501B09116010197A109B1092E
:100220008093130190931401A0931501B0931601CC
:100230008091130190911401A0911501B0911601C4
:10024000892B8A2B8B2B91F40E94E10080910E0167
:1002500090910F01A0911001B091110180931301B1
:1002600090931401A0931501B09316010000DF9143
:10027000CF91FF91EF91BF91AF919F918F917F911E
:100280006F915F914F913F912F910F9000925B0082
:100290000F9000925F000F901F901895CF93DF93FF
:1002A00000D000D0CDB7DEB769837A838B839C837F
:1002B00089819A81AB81BC8180930E0190930F015B
:1002C000A0931001B093110180910E0190910F0144
:1002D000A0911001B091110180931301909314012A
:1002E000A0931501B093160100000F900F900F908E
:1002F0000F90DF91CF910895CF93DF9300D0CDB7CA
:10030000DEB780E290E0FC01808181708A831982EF
:100310008091180190911901CC01A0E0B0E040E07B
:1003200050E026E030E0841B950B2817390708F4CD
:1003300064C08A5B9F4FFC010C94640281E090E0F2
:1003400090931901809318015DC08A81882319F068
:1003500082E090E002C083E090E0909319018093E6
:10036000180150C08A81882319F082E090E002C011
:1003700083E090E0909319018093180143C08A8133
:10038000882319F084E090E002C085E090E090932B
:1003900019018093180136C08A81882369F48A8103
:1003A000882339F480911701823018F081E090E0C1
:1003B00005C085E090E002C084E090E090931901D0
:1003C000809318011FC08A81882319F086E090E08D
:1003D00002C083E090E0909319018093180112C04D
:1003E0008A81882319F086E090E002C083E090E0E3
:1003F000909319018093180105C010921901109271
:10040000180100008091180190911901CC01A0E021
:10041000B0E040E050E026E030E0841B950B281768
:100420003907D8F0835B9F4FFC010C946402109253
:10043000170181E0898311C0809117018F5F80933C
:10044000170182E0898309C0809117018F5F809333
:10045000170184E0898301C0000085E290E02981D2
:10046000FC01208300000F900F90DF91CF91089541
:10047000CF93DF93CDB7DEB784E290E02FEFFC019E
:10048000208385E290E0FC01108281E290E0FC0193
:10049000108282E290E02FEFFC01208368EE73E08F
:1004A00080E090E00E944E010E949E00109219018F
:1004B000109218010E947C01000080911201882393
:1004C000E1F310921201F6CFEE0FFF1F0024001C83
:0E04D0000BBE0790F691E02D0994F894FFCF33
:1004DE000000000200000000750000000000010096
:0204EE0000000C
:00000001FF
