:100000000C9454000C9473000C9473000C947300C3
:100010000C9473000C9473000C9473000C94730094
:100020000C9473000C9473000C9473000C94730084
:100030000C9473000C94EC000C9473000C947300FB
:100040000C9473000C9473000C9473000C94730064
:100050000C9473000C9473000C9473000C94730054
:100060000C9473000C9473000C9473000C94730044
:100070000C9473000C9473000C9473000C94730034
:100080000C9473000C9473000C947300A801AF01DE
:10009000DA01E1011D0224026002C802C802A502C1
:1000A000AF02B502BF02C50211241FBECFEFD0E4DC
:1000B000DEBFCDBF11E0A0E0B1E0E0E2F6E000E09D
:1000C0000BBF02C007900D92A431B107D9F721E010
:1000D000A4E1B1E001C01D92AC31B207E1F70E948A
:1000E000D9020C940E030C940000CF93DF9300D040
:1000F0001F92CDB7DEB789837B836A8389818A307B
:1001000031F48A819B81BC018DE00E94750080ECF6
:1001100090E0FC018081882F90E080729927892BE4
:10012000B1F386EC90E02981FC01208380E090E02F
:100130000F900F900F90DF91CF910895CF93DF93A1
:10014000CDB7DEB781E890E02BE0FC01208388E8A2
:1001500090E02DE730E0FC01318320838FE690E0D2
:1001600022E0FC01208384E890E0FC0111821082EF
:1001700080910E0190910F01A0911001B091110199
:100180008093150190931601A0931701B093180165
:100190008FE590E02FE530E0F90120812068FC0137
:1001A00020830000DF91CF910895CF93DF93CDB7E7
:1001B000DEB781E890E0FC0110820000DF91CF9172
:1001C0000895CF93DF93CDB7DEB781E0809314011C
:1001D0000000DF91CF9108951F920F9200905F0071
:1001E0000F92112400905B000F922F933F934F9337
:1001F0005F936F937F938F939F93AF93BF93EF938F
:10020000FF93CF93DF93CDB7DEB780911501909127
:100210001601A0911701B09118010197A109B10928
:100220008093150190931601A0931701B0931801C4
:100230008091150190911601A0911701B0911801BC
:10024000892B8A2B8B2B91F40E94E10080910E0167
:1002500090910F01A0911001B091110180931501AF
:1002600090931601A0931701B09318010000DF913D
:10027000CF91FF91EF91BF91AF919F918F917F911E
:100280006F915F914F913F912F910F9000925B0082
:100290000F9000925F000F901F901895CF93DF93FF
:1002A00000D000D0CDB7DEB769837A838B839C837F
:1002B00089819A81AB81BC8180930E0190930F015B
:1002C000A0931001B093110180910E0190910F0144
:1002D000A0911001B0911101809315019093160126
:1002E000A0931701B093180100000F900F900F908A
:1002F0000F90DF91CF910895CF93DF9300D0CDB7CA
:10030000DEB780E290E0FC0180818170898380E229
:1003100090E0FC018081882F90E08270992795956C
:1003200087958A8380911A0190911B01CC01A0E0EE
:10033000B0E040E050E026E030E0841B950B281749
:10034000390708F4E8C08A5B9F4FFC010C94050351
:1003500081E090E090931B0180931A01E1C08981B4
:10036000882319F48A818823F1F08981882319F080
:100370008A818823A9F08981882319F48A818823B6
:1003800061F48981882331F08A81882319F086E01D
:1003900090E00BC080E090E008C084E090E005C0F1
:1003A00082E090E002C081E090E090931B01809396
:1003B0001A01B6C083E090E090931B0180931A016C
:1003C000AFC08981882319F48A81882379F18981D2
:1003D000882339F08A81882321F4809119018B3098
:1003E00010F18981882339F08A81882321F4809152
:1003F00019018B30A8F48981882319F48A81882314
:1004000061F48981882331F08A81882319F086E09C
:1004100090E00EC080E090E00BC084E090E008C067
:1004200082E090E005C083E090E002C081E090E0CF
:1004300090931B0180931A0173C085E090E0909324
:100440001B0180931A016CC08981882319F48A8169
:10045000882379F18981882319F08A81882331F1F1
:100460008981882339F48A81882321F080911901B8
:100470008B30C8F08981882339F48A81882321F060
:10048000809119018B3060F48981882331F08A8151
:10049000882319F086E090E00EC080E090E00BC069
:1004A00084E090E008C085E090E005C082E090E044
:1004B00002C081E090E090931B0180931A0130C04C
:1004C0008981882319F48A818823F1F0898188231E
:1004D00019F08A818823A9F08981882319F48A81F7
:1004E000882361F48981882331F08A81882319F077
:1004F00086E090E00BC080E090E008C084E090E0EF
:1005000005C082E090E002C081E090E090931B0182
:1005100080931A0105C010921B0110921A0100006D
:1005200080911A0190911B01CC01A0E0B0E040E065
:1005300050E026E030E0841B950B2817390768F15E
:10054000835B9F4FFC010C9405038091120189305D
:1005500008F5809112018F5F809312011BC080917A
:1005600019018F5F8093190118C0809112018823AF
:1005700099F0809112018150809312010DC08091F9
:1005800019018F5F8093190108C01092120105C0F4
:10059000000003C0000001C0000085E290E020914F
:1005A0001201FC01208300000F900F90DF91CF918A
:1005B0000895CF93DF93CDB7DEB784E290E02FEFBD
:1005C000FC01208385E290E0FC01108281E290E052
:1005D000FC01108282E290E02FEFFC01208364E6B0
:1005E00070E080E090E00E944E010E949E00109218
:1005F0001B0110921A010E947C01000080911401DD
:100600008823E1F310921401F6CFEE0FFF1F0024B0
:10061000001C0BBE0790F691E02D0994F894FFCFD3
:100620000000000200000000750000000000010052
:0406300000000700BF
:00000001FF
