:100000000C9460000C947F000C947F000C947F0093
:100010000C947F000C947F000C947F000C947F0064
:100020000C947F000C947F000C947F000C947F0054
:100030000C947F000C94F8000C947F000C947F00CB
:100040000C947F000C947F000C947F000C947F0034
:100050000C947F000C947F000C947F000C947F0024
:100060000C947F000C947F000C947F000C947F0014
:100070000C947F000C947F000C947F000C947F0004
:100080000C947F000C947F000C947F00B001B701AA
:10009000CD01DE01EF0105022602370248025E02B1
:1000A000740285029602D402C602D402D402D4029B
:1000B000CC02D402D402D402D002D402D402D4029C
:1000C00011241FBECFEFD0E4DEBFCDBF11E0A0E012
:1000D000B1E0EEE2F6E000E00BBF02C007900D9247
:1000E000A231B107D9F721E0A2E1B1E001C01D9230
:1000F000AB31B207E1F70E94E0020C9415030C94B7
:100100000000CF93DF9300D01F92CDB7DEB7898375
:100110007B836A8389818A3031F48A819B81BC0127
:100120008DE00E94810080EC90E0FC018081882FAE
:1001300090E080729927892BB1F386EC90E02981B9
:10014000FC01208380E090E00F900F900F90DF91F2
:10015000CF910895CF93DF93CDB7DEB781E890E0DC
:100160002BE0FC01208388E890E02DE730E0FC01E3
:10017000318320838FE690E022E0FC01208384E835
:1001800090E0FC011182108280910E0190910F018C
:10019000A0911001B091110180931301909314016B
:1001A000A0931501B09316018FE590E02FE530E0A4
:1001B000F90120812068FC0120830000DF91CF91AC
:1001C0000895CF93DF93CDB7DEB781E890E0FC01CF
:1001D00010820000DF91CF910895CF93DF93CDB7C8
:1001E000DEB781E0809312010000DF91CF91089586
:1001F0001F920F9200905F000F92112400905B00FD
:100200000F922F933F934F935F936F937F938F93AF
:100210009F93AF93BF93EF93FF93CF93DF93CDB7AC
:10022000DEB78091130190911401A0911501B09156
:1002300016010197A109B10980931301909314014C
:10024000A0931501B09316018091130190911401B0
:10025000A0911501B0911601892B8A2B8B2B91F45B
:100260000E94ED0080910E0190910F01A09110016C
:10027000B09111018093130190931401A093150183
:10028000B09316010000DF91CF91FF91EF91BF91E4
:10029000AF919F918F917F916F915F914F913F911E
:1002A0002F910F9000925B000F9000925F000F90D3
:1002B0001F901895CF93DF9300D000D0CDB7DEB755
:1002C00069837A838B839C8389819A81AB81BC818A
:1002D00080930E0190930F01A0931001B093110130
:1002E00080910E0190910F01A0911001B091110128
:1002F0008093130190931401A0931501B0931601FC
:1003000000000F900F900F900F90DF91CF91089504
:10031000CF93DF931F92CDB7DEB780E290E0FC0170
:100320008081882F90E08170992721E0892B09F046
:1003300020E029838091190190911A01CC01A0E05D
:10034000B0E040E050E02CE030E0841B950B281733
:10035000390708F401C18A5B9F4FFC010C940C0320
:1003600081E090E090931A0180931901FAC089818D
:10037000882339F082E090E090931A01809319016C
:10038000F0C085E090E090931A018093190180916C
:1003900017018F5F80931701E4C08981882339F0AA
:1003A00082E090E090931A0180931901DAC083E013
:1003B00090E090931A0180931901D3C0898188231A
:1003C00039F084E090E090931A0180931901C9C03C
:1003D00083E090E090931A0180931901C2C0898153
:1003E000882339F084E090E090931A0180931901FA
:1003F000B8C085E090E090931A0180931901809134
:1004000017018F5F80931701ACC08981882339F071
:1004100086E090E090931A0180931901A2C0809128
:100420001701823038F081E090E090931A018093B8
:10043000190197C089E090E090931A018093190107
:10044000809117018F5F809317018BC0898188236A
:1004500039F086E090E090931A018093190181C0F1
:1004600087E090E090931A01809319017AC0898106
:10047000882339F088E090E090931A018093190165
:1004800070C087E090E090931A018093190169C0D1
:100490008981882339F088E090E090931A01809355
:1004A00019015FC089E090E090931A0180931901CF
:1004B000809117018F5F8093170153C08981882332
:1004C00039F08AE090E090931A018093190149C0B5
:1004D00085E090E090931A018093190180911701B3
:1004E0008F5F809317013DC08981882339F08AE0AE
:1004F00090E090931A018093190133C08BE090E053
:1005000090931A01809319012CC08981882339F0B6
:100510008CE090E090931A018093190122C08BE047
:1005200090E090931A01809319011BC08981882360
:1005300039F08CE090E090931A018093190111C07A
:1005400085E090E090931A01809319018091170142
:100550008F5F8093170105C010921A011092190144
:1005600000008091190190911A01CC01A0E0B0E047
:1005700040E050E02CE030E0841B950B2817390751
:10058000A0F08D5A9F4FFC010C940C0310921701A0
:1005900081E08093180109C082E08093180105C0B2
:1005A00084E08093180101C0000085E290E0209172
:1005B0001801FC01208300000F90DF91CF91089576
:1005C000CF93DF93CDB7DEB784E290E02FEFFC014D
:1005D000208385E290E0FC01108281E290E0FC0142
:1005E000108282E290E02FEFFC0120836CE271E048
:1005F00080E090E00E945A010E94AA0010921A0125
:10060000109219010E948801000080911201882334
:10061000E1F310921201F6CFEE0FFF1F0024001C31
:0E0620000BBE0790F691E02D0994F894FFCFE1
:10062E000000000200000000810000000000010038
:02063E000000BA
:00000001FF
