:100000000C9446000C9465000C9465000C946500FB
:100010000C9465000C9465000C9465000C946500CC
:100020000C9465000C9465000C9465000C946500BC
:100030000C9465000C94D0020C9465000C9465003F
:100040000C9465000C9465000C9465000C9465009C
:100050000C9465000C9465000C9465000C9465008C
:100060000C9465000C9465000C9465000C9465007C
:100070000C9465000C9465000C9465000C9465006C
:100080000C9465000C9465000C94650011241FBE4F
:10009000CFEFD0E4DEBFCDBF11E0A0E0B1E0E8E3F8
:1000A000FEE000E00BBF02C007900D92A032B10746
:1000B000D9F721E0A0E2B1E001C01D92A036B2075D
:1000C000E1F70E9484060C941A070C940000CF9369
:1000D000DF9300D01F92CDB7DEB789837B836A831D
:1000E00089818A3031F48A819B81BC018DE00E9434
:1000F000670080EC90E0FC018081882F90E08072A6
:100100009927892BB1F386EC90E02981FC012083AB
:1001100080E090E00F900F900F90DF91CF910895C5
:10012000CF93DF93CDB7DEB728970FB6F894DEBF35
:100130000FBECDBF9A8389834B835C836D837E839F
:1001400038872F8380912001282F30E083E090E0D2
:100150002817390708F06BC080912001282F30E064
:10016000C901880F991F820F931F880F991F880F4D
:10017000991F875D9E4F29813A81FC01318320833D
:1001800080912001682F70E080912001282F30E0BD
:10019000C901880F991F820F931F880F991F880F1D
:1001A000991FAC01455D5E4F8B819C81AD81BE8105
:1001B000FA0180839183A283B383C901880F991FB9
:1001C000820F931F880F991F880F991F855D9E4F7F
:1001D000FC012081318142815381CB01880F991F1D
:1001E000860F971F880F991F880F991F815D9E4F5B
:1001F000FC01208331834283538380912001282F87
:1002000030E0C901880F991F820F931F880F991F33
:10021000880F991F8D5C9E4F2F813885FC0131839B
:100220002083809120018F5F8093200101C0000016
:1002300028960FB6F894DEBF0FBECDBFDF91CF91E9
:100240000895CF93DF93CDB7DEB72C970FB6F89410
:10025000DEBF0FBECDBF6D837E838F8398872987D6
:100260003A874B875C878D819E81AF81B8852985D0
:100270003A854B855C85BC01CD010E94F806DC0106
:10028000CB0189839A83AB83BC8389819A81AB81BB
:10029000BC81892B8A2B8B2B29F489859A85AB8588
:1002A000BC8511C089859A85AB85BC858D839E836D
:1002B000AF83B88789819A81AB81BC8189879A870E
:1002C000AB87BC87D0CFBC01CD012C960FB6F8947C
:1002D000DEBF0FBECDBFDF91CF910895CF93DF93E7
:1002E00000D000D000D0CDB7DEB780912B01909127
:1002F0002C01A0912D01B0912E0189839A83AB83AB
:10030000BC8381E090E09E838D8325C02D813E815A
:10031000C901880F991F820F931F880F991F880F9B
:10032000991F855D9E4FFC0120813181428153815F
:1003300089819A81AB81BC81BC01CD010E942101E0
:10034000DC01CB0189839A83AB83BC838D819E8141
:1003500001969E838D8380912001282F30E08D812E
:100360009E812817390794F689819A81AB81BC81D7
:100370008093570190935801A0935901B0935A016B
:10038000000026960FB6F894DEBF0FBECDBFDF91FA
:10039000CF910895CF93DF93CDB7DEB781E890E09A
:1003A0002BE0FC01208388E890E02DE730E0FC01A1
:1003B000318320838FE690E022E0FC01208384E8F3
:1003C00090E0FC011182108280910E0190910F014A
:1003D000A0911001B091110180932201909323010B
:1003E000A0932401B09325018FE590E02FE530E044
:1003F000F90120812068FC0120830000DF91CF916A
:100400000895CF93DF93CDB7DEB781E890E0FC018C
:1004100010820000DF91CF9108950F931F93CF9327
:10042000DF931F92CDB7DEB71982AAC08981282F2A
:1004300030E0C901880F991F820F931F880F991F01
:10044000880F991F815D9E4FFC012081318142817F
:1004500053818981682F70E0CB01880F991F860F27
:10046000971F880F991F880F991F855D9E4FFC016C
:1004700080819181A281B381281739074A075B07E0
:1004800008F449C08981082F10E08981282F30E0C5
:10049000C901880F991F820F931F880F991F880F1A
:1004A000991F8D5C9E4FFC01408151818981282FCD
:1004B00030E0C901880F991F820F931F880F991F81
:1004C000880F991F875D9E4FFC0180819181FA0101
:1004D00009959C01C801880F991F800F911F880FF3
:1004E000991F880F991F875D9E4FFC0131832083E0
:1004F0008981282F30E0C901880F991F820F931F2F
:10050000880F991F880F991F815D9E4FFC011082F3
:100510001182128213828981682F70E08981282FCD
:1005200030E0C901880F991F820F931F880F991F10
:10053000880F991F815D9E4FFC012081318142818E
:1005400053818091570190915801A0915901B09128
:100550005A01280F391F4A1F5B1FCB01880F991FB3
:10056000860F971F880F991F880F991F815D9E4FD7
:10057000FC01208331834283538389818F5F898388
:100580008981282F30E083E090E02817390708F4AC
:100590004DCF00000F90DF91CF911F910F910895E3
:1005A0001F920F9200905F000F92112400905B0049
:1005B0000F922F933F934F935F936F937F938F93FC
:1005C0009F93AF93BF93EF93FF93CF93DF93CDB7F9
:1005D000DEB78091220190912301A0912401B09176
:1005E00025010197A109B10980932201909323016C
:1005F000A0932401B09325018091220190912301C1
:10060000A0912401B0912501892B8A2B8B2B91F489
:100610000E940D0280910E0190910F01A091100196
:10062000B09111018093220190932301A0932401A2
:10063000B09325010000DF91CF91FF91EF91BF9121
:10064000AF919F918F917F916F915F914F913F916A
:100650002F910F9000925B000F9000925F000F901F
:100660001F901895CF93DF9300D000D0CDB7DEB7A1
:1006700069837A838B839C8389819A81AB81BC81D6
:1006800080930E0190930F01A0931001B09311017C
:1006900080910E0190910F01A0911001B091110174
:1006A0008093220190932301A0932401B09325010C
:1006B00000000F900F900F900F90DF91CF91089551
:1006C000CF93DF9300D01F92CDB7DEB789836A83C3
:1006D0004B838B81882371F08A81282F30E081E061
:1006E00090E002C0880F991F2A95E2F7982F898120
:1006F000892B0EC08A81282F30E081E090E002C073
:10070000880F991F2A95E2F7982F90958981892360
:100710000F900F900F90DF91CF910895CF93DF93BB
:1007200000D0CDB7DEB789836A838A81282F30E075
:1007300081E090E002C0880F991F2A95E2F7982F78
:10074000898189230F900F90DF91CF910895CF93E6
:10075000DF93CDB7DEB788E290E02FEEFC01208377
:10076000000086E290E0FC01808160E00E948E0340
:10077000882311F481E3B8C086E290E0FC01808117
:1007800061E00E948E03882311F484E3ADC086E209
:1007900090E0FC01808162E00E948E03882311F4C6
:1007A00087E3A2C086E290E0FC01808163E00E94C2
:1007B0008E03882311F48AE297C088E290E02FED3F
:1007C000FC012083000086E290E0FC01808160E073
:1007D0000E948E03882311F482E386C086E290E0B3
:1007E000FC01808161E00E948E03882311F485E37F
:1007F0007BC086E290E0FC01808162E00E948E0373
:10080000882311F488E370C086E290E0FC018081C7
:1008100063E00E948E03882311F480E365C088E2C0
:1008200090E02FEBFC012083000086E290E0FC01C9
:10083000808160E00E948E03882311F483E354C01A
:1008400086E290E0FC01808161E00E948E038823B3
:1008500011F486E349C086E290E0FC01808162E009
:100860000E948E03882311F489E33EC086E290E063
:10087000FC01808163E00E948E03882311F483E2EF
:1008800033C088E290E02FE7FC012083000086E27D
:1008900090E0FC01808160E00E948E03882311F4C7
:1008A00081E422C086E290E0FC01808161E00E9448
:1008B0008E03882311F482E417C086E290E0FC01E5
:1008C000808162E00E948E03882311F483E40CC0CF
:1008D00086E290E0FC01808163E00E948E03882321
:1008E00011F484E401C080E0DF91CF910895CF93AB
:1008F000DF9300D0CDB7DEB79A83898388E290E09A
:100900002FEEFC012083000086E290E0FC01808154
:1009100060E00E948E03882311F481E001C08FE122
:1009200080934E0186E290E0FC01808161E00E94AC
:100930008E03882311F484E001C08FE18093560177
:1009400086E290E0FC01808162E00E948E038823B1
:1009500011F487E001C08FE18093520186E290E0BC
:10096000FC01808163E00E948E03882311F48EE0F5
:1009700001C08FE18093550188E290E02FEDFC01EA
:100980002083000086E290E0FC01808160E00E940C
:100990008E03882311F482E001C08FE180935C0113
:1009A00086E290E0FC01808161E00E948E03882352
:1009B00011F485E001C08FE180935B0186E290E055
:1009C000FC01808162E00E948E03882311F488E09C
:1009D00001C08FE180934D0186E290E0FC018081AF
:1009E00063E00E948E03882311F480E001C08FE150
:1009F0008093270188E290E02FEBFC012083000028
:100A000086E290E0FC01808160E00E948E038823F2
:100A100011F483E001C08FE180935E0186E290E0F3
:100A2000FC01808161E00E948E03882311F486E03E
:100A300001C08FE18093500186E290E0FC0180814B
:100A400062E00E948E03882311F489E001C08FE1E7
:100A50008093510186E290E0FC01808163E00E9476
:100A60008E03882311F48FE001C08FE1809353013E
:100A700088E290E02FE7FC012083000086E290E00E
:100A8000FC01808160E00E948E03882311F48AE0DB
:100A900001C08FE18093540186E290E0FC018081E7
:100AA00061E00E948E03882311F48BE001C08FE186
:100AB00080935F0186E290E0FC01808162E00E9409
:100AC0008E03882311F48CE001C08FE180935D01D7
:100AD00086E290E0FC01808163E00E948E0388231F
:100AE00011F48DE001C08FE180934F0180E090E030
:100AF0000F900F90DF91CF910895CF93DF9300D0A7
:100B000000D0CDB7DEB79C838B8380E889831A82BF
:100B10008B819C818130910561F08230910509F4CF
:100B200052C0892B09F099C081E090E09C838B83AF
:100B300097C0809127018F3109F040C080914E010C
:100B40008F3109F03BC080915C018F31B9F5809104
:100B50005E018F3199F5809156018F3179F5809141
:100B60005B018F3159F5809150018F3139F58091BA
:100B700052018F3119F580914D018F31F9F4809137
:100B800051018F31D9F4809154018F31B9F48091A2
:100B90005F018F3199F480915D018F3179F48091FB
:100BA0004F018F3159F4809155018F3139F4809183
:100BB00053018F3119F481E090E002C082E090E0AF
:100BC0009C838B834DC0809127018F3109F040C0F9
:100BD00080914E018F3109F03BC080915C018F31D3
:100BE000B9F580915E018F3199F5809156018F3171
:100BF00079F580915B018F3159F5809150018F31EA
:100C000039F5809152018F3119F580914D018F3165
:100C1000F9F4809151018F31D9F4809154018F31D1
:100C2000B9F480915F018F3199F480915D018F312A
:100C300079F480914F018F3159F4809155018F31B2
:100C400039F4809153018F3119F481E090E002C0B2
:100C500082E090E09C838B8303C01C821B82000097
:100C60008B819C818130910551F08230910559F042
:100C7000892B69F481E090E09C838B8308C08A8192
:100C80008093280104C089818093280100008B8112
:100C90009C810F900F900F900F90DF91CF9108954E
:100CA000CF93DF9300D0CDB7DEB79A838983898154
:100CB0009A81009719F0019731F00AC081E090E025
:100CC0009A83898308C081E090E09A83898303C076
:100CD0001A821982000089819A81009739F0019760
:100CE00031F4809128018093260101C0000085E243
:100CF00090E020912601FC01208389819A810F9048
:100D00000F90DF91CF910895CF93DF93CDB7DEB7EA
:100D100084E290E02FEFFC01208385E290E0FC016B
:100D2000108287E290E020EFFC01208388E290E0CF
:100D30002FE0FC0120838AE290E02FEFFC0120836A
:100D40008BE290E0FC01108284E690E0A0E0B0E04D
:100D500027E734E0AC01BD0180E090E00E94900004
:100D600084E690E0A0E0B0E02DE735E0AC01BD0105
:100D700080E090E00E94900084E690E0A0E0B0E087
:100D800020E536E0AC01BD0180E090E00E949000DB
:100D90000E946E018091570190915801A0915901D4
:100DA000B0915A01BC01CD010E9432030E94CA01D8
:100DB000809153018F3149F0809155018F3129F095
:100DC0008BE290E021E0FC012083809153018F3180
:100DD00029F08BE290E022E0FC0120838091550114
:100DE0008F3131F38BE290E024E0FC012083E0CFEF
:100DF000A1E21A2EAA1BBB1BFD010DC0AA1FBB1F1F
:100E0000EE1FFF1FA217B307E407F50720F0A21B90
:100E1000B30BE40BF50B661F771F881F991F1A94FD
:100E200069F760957095809590959B01AC01BD0127
:080E3000CF010895F894FFCFF3
:100E38000000000200000000670000000000010040
:100E4800000003006400000064000000640000006B
:00000001FF
