:100000000C9456000C9475000C9475000C947500BB
:100010000C9475000C9475000C9475000C9475008C
:100020000C9475000C9475000C9475000C9475007C
:100030000C9475000C94EE000C9475000C947500F3
:100040000C9475000C9475000C9475000C9475005C
:100050000C9475000C9475000C9475000C9475004C
:100060000C9475000C9475000C9475000C9475003C
:100070000C9475000C9475000C9475000C9475002C
:100080000C9475000C9475000C947500B301B601C6
:10009000B601B901B901BC01BC01BF01BF01BF017B
:1000A000C201C201C201C501C501C50111241FBEA3
:1000B000CFEFD0E4DEBFCDBF11E0A0E0B1E0E8EBD0
:1000C000F3E000E00BBF02C007900D92A231B10730
:1000D000D9F721E0A2E1B1E001C01D92A731B2073A
:1000E000E1F70E947E010C94DA010C940000CF939A
:1000F000DF9300D01F92CDB7DEB789837B836A83FD
:1001000089818A3031F48A819B81BC018DE00E9413
:10011000770080EC90E0FC018081882F90E0807275
:100120009927892BB1F386EC90E02981FC0120838B
:1001300080E090E00F900F900F90DF91CF910895A5
:10014000CF93DF93CDB7DEB781E890E02BE0FC01E1
:10015000208388E890E02DE730E0FC0131832083A4
:100160008FE690E022E0FC01208384E890E0FC012F
:100170001182108280910E0190910F01A0911001C7
:10018000B09111018093130190931401A093150174
:10019000B09316018FE590E02FE530E0F901208162
:1001A0002068FC0120830000DF91CF910895CF9358
:1001B000DF93CDB7DEB781E890E0FC01108200004C
:1001C000DF91CF910895CF93DF93CDB7DEB781E074
:1001D000809312010000DF91CF9108951F920F923A
:1001E00000905F000F92112400905B000F922F93FC
:1001F0003F934F935F936F937F938F939F93AF93AF
:10020000BF93EF93FF93CF93DF93CDB7DEB780918A
:10021000130190911401A0911501B091160101975D
:10022000A109B1098093130190931401A0931501C2
:10023000B09316018091130190911401A0911501C2
:10024000B0911601892B8A2B8B2B91F40E94E3002D
:1002500080910E0190910F01A0911001B0911101B8
:100260008093130190931401A0931501B09316018C
:100270000000DF91CF91FF91EF91BF91AF919F91DE
:100280008F917F916F915F914F913F912F910F903F
:1002900000925B000F9000925F000F901F901895E6
:1002A000CF93DF9300D000D0CDB7DEB769837A83D8
:1002B0008B839C8389819A81AB81BC8180930E0161
:1002C00090930F01A0931001B093110180910E0142
:1002D00090910F01A0911001B09111018093130131
:1002E00090931401A0931501B093160100000F9094
:1002F0000F900F900F90DF91CF910895CF93DF93E0
:1003000000D0CDB7DEB781E290E0FC01108282E23E
:1003100090E02FEFFC01208387E290E02FEFFC01BB
:10032000208388E290E0FC0110821A82198280E228
:1003300090E0FC01808180958F708A838A81882F6C
:1003400090E0092E000CAA0BBB0B40E050E02FE020
:1003500030E0841B950B28173907D0F08A5B9F4F3C
:10036000FC010C94D10180E4898315C080E6898367
:1003700012C080E789830FC088E389830CC08CE3B7
:10038000898309C08EE3898306C08FE3898303C014
:100390008FEF8983000088E290E02981FC012083AF
:1003A000C6CFEE0FFF1F0024001C0BBE0790F69176
:0803B000E02D0994F894FFCF41
:1003B80000000002000000007700000000000100BB
:0203C800000033
:00000001FF
