:100000000C9454000C9473000C9473000C947300C3
:100010000C9473000C9473000C9473000C94730094
:100020000C9473000C9473000C9473000C94730084
:100030000C9473000C9473000C9473000C94730074
:100040000C9473000C9473000C9473000C94730064
:100050000C9473000C9473000C9473000C94730054
:100060000C9473000C9473000C9473000C94730044
:100070000C9473000C9473000C9473000C94730034
:100080000C9473000C9473000C947300D300DA008A
:1000900005010C0137013E016901C501C501AE0131
:1000A000C501B801C501C20111241FBECFEFD0E4C4
:1000B000DEBFCDBF11E0A0E0B1E0ECEFF3E000E087
:1000C0000BBF02C007900D92A031B107D9F721E014
:1000D000A0E1B1E001C01D92A231B207E1F70E9498
:1000E000D6010C94FC010C940000CF93DF9300D058
:1000F0001F92CDB7DEB789837B836A8389818A307B
:1001000031F48A819B81BC018DE00E94750080ECF6
:1001100090E0FC018081882F90E080729927892BE4
:10012000B1F386EC90E02981FC01208380E090E02F
:100130000F900F900F90DF91CF910895CF93DF93A1
:1001400000D0CDB7DEB780E290E0FC018081882F3F
:1001500090E08170992721E0892B09F020E0298324
:1001600080E290E0FC018081882F90E0809590955E
:1001700082709927959587958A8380911001909137
:100180001101CC01A0E0B0E040E050E026E030E01A
:10019000841B950B2817390708F4C6C08A5B9F4F4C
:1001A000FC010C94F30181E090E0909311018093A5
:1001B0001001BFC08981882319F48A818823F1F056
:1001C0008981882319F08A818823A9F0898188236D
:1001D00019F48A81882361F48981882331F08A8126
:1001E000882319F086E090E00BC080E090E008C022
:1001F00084E090E005C082E090E002C081E090E001
:10020000909311018093100194C083E090E090934B
:100210001101809310018DC08981882319F48A818E
:100220008823F1F08981882319F08A818823A9F035
:100230008981882319F48A81882361F4898188233C
:1002400031F08A81882319F086E090E00BC080E0CD
:1002500090E008C084E090E005C083E090E002C038
:1002600081E090E0909311018093100162C085E0DD
:1002700090E090931101809310015BC089818823E5
:1002800019F48A818823F1F08981882319F08A8101
:100290008823A9F08981882319F48A81882361F44D
:1002A0008981882331F08A81882319F086E090E0E3
:1002B0000BC080E090E008C085E090E005C082E0DF
:1002C00090E002C081E090E09093110180931001D2
:1002D00030C08981882319F48A818823F1F08981CB
:1002E000882319F08A818823A9F08981882319F449
:1002F0008A81882361F48981882331F08A81882367
:1003000019F086E090E00BC080E090E008C084E047
:1003100090E005C082E090E002C081E090E0909320
:1003200011018093100105C010921101109210016B
:1003300000008091100190911101CC01A0E0B0E08B
:1003400040E050E026E030E0841B950B2817390789
:1003500008F1835B9F4FFC010C94F30180910E0127
:100360008930A8F480910E018F5F80930E010FC039
:1003700080910E01882369F080910E018150809355
:100380000E0107C010920E0105C0000003C000005E
:1003900001C0000088E290E020910E01FC01208362
:1003A00000000F900F90DF91CF910895CF93DF93CE
:1003B000CDB7DEB781E290E0FC01108282E290E0EE
:1003C0002FEFFC01208387E290E02FEFFC012083D8
:1003D00088E290E0FC01108210921101109210014D
:1003E0000E949E00FDCFEE0FFF1F0024001C0BBEDD
:0C03F0000790F691E02D0994F894FFCFDF
:1003FC000000000200000000750000000000070073
:00000001FF
