:100000000C9446000C9465000C9465000C946500FB
:100010000C9465000C9465000C9465000C946500CC
:100020000C9465000C9465000C9465000C946500BC
:100030000C9465000C9465000C9465000C946500AC
:100040000C9465000C9465000C9465000C9465009C
:100050000C9465000C9465000C9465000C9465008C
:100060000C9465000C9465000C9465000C9465007C
:100070000C9465000C9465000C9465000C9465006C
:100080000C9465000C9465000C94650011241FBE4F
:10009000CFEFD0E4DEBFCDBF11E0A0E0B1E0E2E9F8
:1000A000F2E000E00BBF02C007900D92AE30B10746
:1000B000D9F721E0AEE0B1E001C01D92A231B20754
:1000C000E1F70E942A010C9447010C940000CF93A1
:1000D000DF9300D01F92CDB7DEB789837B836A831D
:1000E00089818A3031F48A819B81BC018DE00E9434
:1000F000670080EC90E0FC018081882F90E08072A6
:100100009927892BB1F386EC90E02981FC012083AB
:1001100080E090E00F900F900F90DF91CF910895C5
:10012000CF93DF931F92CDB7DEB780E290E0FC0162
:100130008081882F90E08170992721E0892B09F038
:1001400020E0298380911001909111018130910567
:1001500081F08130910530F082309105B9F003973C
:10016000E1F031C081E090E09093110180931001A3
:100170002FC08981882319F082E090E002C081E0DD
:1001800090E0909311018093100122C083E090E0F1
:1001900090931101809310011BC08981882339F04D
:1001A00083E090E0909311018093100111C081E0F1
:1001B00090E0909311018093100180910E018F5F68
:1001C00080930E0105C010921101109210010000E1
:1001D00080911001909111018130910531F08130B1
:1001E000910550F1029741F02AC080910E018C30A8
:1001F00028F110920E0122C080910E01882321F473
:1002000080910F01816015C080910E01863020F42D
:1002100080910F01880F0DC080910E01863040F053
:1002200080910E018C3020F480910F01869501C0E1
:1002300080E080930F0103C0000001C0000085E250
:1002400090E020910F01FC01208300000F90DF91CE
:10025000CF910895CF93DF93CDB7DEB781E290E0E1
:10026000FC01108282E290E02FEFFC01208384E207
:1002700090E02FEFFC01208385E290E0FC011082EA
:1002800010921101109210010E949000FDCFF8947D
:02029000FFCF9E
:0E0292000000000200000000670000000000F5
:00000001FF
